:020000040002F8
:10600000E8880020C1630200C9630200CB6302007C
:10601000CD630200CF630200D163020000000000E4
:10602000000000000000000000000000D363020038
:10603000D563020000000000D7630200D9630200AC
:1060400039710200DB6302007D75020001720200FB
:1060500055720200DB63020095700200DB630200F0
:10606000417502005575020069750200DB6302008C
:10607000DB630200DB630200DB630200DB63020020
:10608000DB63020091710200DB630200DB6302004C
:10609000DB630200DB63020065720200DB63020067
:1060A000DB630200DB630200DB630200DB630200F0
:1060B000DB630200DB630200000000000000000060
:1060C000DB630200DB630200DB630200DB630200D0
:1060D000DB630200DB630200DB6302000000000000
:1060E00000000000000000000000000000000000B0
:1060F00000000000000000000000000000000000A0
:10610000000000000000000000000000000000008F
:10611000000000000000000000000000000000007F
:10612000000000000000000000000000000000006F
:10613000000000000000000000000000000000005F
:10614000000000000000000000000000000000004F
:10615000000000000000000000000000000000003F
:10616000000000000000000000000000000000002F
:10617000000000000000000000000000000000001F
:10618000000000000000000000000000000000000F
:1061900000000000000000000000000000000000FF
:1061A00000000000000000000000000000000000EF
:1061B00000000000000000000000000000000000DF
:1061C00000000000000000000000000000000000CF
:1061D00000000000000000000000000000000000BF
:1061E00000000000000000000000000000000000AF
:1061F000000000000000000000000000000000009F
:10620000DFF80CD000F0DAFB00480047898E02006E
:10621000E888002030B450E8012F93B2C4892344A9
:106220008489A34228BF1B1B0489A34202BFBFF37A
:106230002F8F002007E0C3EA020340E80134002C5E
:10624000E9D14FF001000A6030BC704750E8012FDF
:10625000C2EA024240E801210029F7D1704730B478
:1062600050E8022F1FFAA2F3C488A34202BFBFF373
:106270002F8F00200DE0C48923448489A34228BFC6
:106280001B1BC2EA034340E80234002CE8D14FF064
:1062900001000A6030BC704750E8022FC2EA224277
:1062A00040E802210029F7D17047034653E8022F46
:1062B000D988B2EB324F4FF0000017BF92B241EADB
:1062C000014142EA014104E05A68B2EB324F08BF93
:1062D000012043E80212002AE8D1704730B4044696
:1062E00054E8000F0D4644E80053002BF8D1156028
:1062F00030BC704730B4044654E8000F40EA010552
:1063000044E80053002BF7D1156030BC704730B41F
:10631000044654E8000F00EA010544E80053002B4E
:10632000F7D1156030BC704730B4044654E8000F14
:1063300080EA010544E80053002BF7D1156030BC1A
:10634000704730B4044654E8000F00EB010544E800
:106350000053002BF7D1156030BC704730B40446B1
:1063600054E8000FA0EB010544E80053002BF7D1DF
:10637000156030BC704770B404464FF0000054E81C
:10638000006F0D68AE4207BF44E80023012044E8D7
:1063900000630E60002B1CBF0020F0E770BC70474C
:1063A00030B4044654E8000F88422CBF451A054615
:1063B00044E80053002BF5D1156030BC7047000055
:1063C0000648804706480047FEE7FEE7FEE7FEE78F
:1063D000FEE7FEE7FEE7FEE7FEE7FEE76972020082
:1063E00001620200202A04DB203A00FA02F10020B8
:1063F00070479140C2F1200320FA03F31943904003
:106400007047202A04DB203A21FA02F0002170476D
:1064100021FA02F3D040C2F120029140084319460C
:1064200070470000004870473428030040EA010329
:106430009B0703D009E008C9121F08C0042AFAD23A
:1064400003E011F8013B00F8013B521EF9D27047FE
:10645000D2B201E000F8012B491EFBD270470022A6
:10646000F6E710B513460A4604461946FFF7F0FF53
:10647000204610BD421C10F8011B0029FBD1801AD8
:106480007047034611F8012B00F8012B002AF9D1BF
:106490001846704730B505460020034600E05B1CF7
:1064A000934205D2EC5CC85C201A01D1002CF6D1D5
:1064B00030BD2DE9FE4F804681EA0300C00F0C4637
:1064C000009021F0004123F00045B8EB0200A94103
:1064D00005D24046214690461C460B46024623F014
:1064E0000040104347D0270DC7F30A00C3F30A51F9
:1064F0000290401A019040286BDAC3F3130040F475
:10650000801B0098924620B10023D2EB030A63EB74
:106510000B0B01985946C0F140025046FFF762FF4D
:1065200006460D4650465946019A00F0A0F910EB78
:1065300008006141002487EA115284EAE7731A4394
:1065400040D0009A62B3019A012A4FEA075215DC43
:10655000001B61EB02014FF0004202EA0752CDE955
:106560000042001C41F5801132462B4600F0D7F95D
:1065700003B0BDE8F08F40462146F9E7001B61EB10
:106580000201001C41F5801300185B412018A2F5A0
:10659000001747EB030140EAD570B6196D4111E0D1
:1065A0006D084FEA360645EAC0754FEA0752001BF0
:1065B00061EB0201001C41F5801149084FEA3000EF
:1065C0000019514132462B4603B0BDE8F04F00F0B0
:1065D00097B90098012240000023D0EB020263EB40
:1065E000E073009821464FEAE074B8EB000061EBDD
:1065F0000401E9E783F000435BE781F0004158E7DD
:106600002DE9FE4F81EA030404F0004421F000412B
:1066100000944FF0000B23F0004350EA01045ED0D9
:1066200052EA03045BD0C3F30A54C1F30A552C4465
:10663000A4F2F3340194A0FB0254C1F3130141F41A
:106640008011C3F3130343F4801301FB024400FBE6
:10665000034E840A970A44EA815447EA8357A4FB0D
:10666000076802958D0A05FB07854FEA932C04FB0A
:106670000C542705029D4FEA065847EA1637B5EB3A
:1066800008056EEB070C870E920E47EA811742EA67
:106690008312A7FB0201B6EB0B0164EB00042B0D88
:1066A00043EA0C335E1844EB1C50DA465146E7FBD4
:1066B0000201C5F313044FEA0B3343EA14534FEAC4
:1066C0000432019C43EA0603A4F10C040294009CEA
:1066D000CDE900B400F023F903B0BDE8F08F00204D
:1066E0000146F9E72DE9F04D81EA030404F0004B7F
:1066F00021F0004514464FF0000A23F0004150EA13
:10670000050220D054EA01021DD0C5F30A57024603
:10671000C5F31303C1F31300C1F30A5640F4801507
:1067200043F48013A7EB0608101BD64608F2FD3889
:1067300073EB050002D308F1010801E092185B41F8
:10674000B8F1000F03DA00200146BDE8F08D00200B
:106750004FF48011064684460EE0171B73EB0507C5
:1067600005D3121B63EB050306434CEA010C4908F1
:106770004FEA300092185B4150EA0107EDD152EA2E
:10678000030012D082EA040083EA0501084305D021
:10679000101BAB4106D20122002306E000224FF07D
:1067A000004302E06FF0010253101AEB06004CEBBD
:1067B000085110EB0A0041EB0B01BDE8F04D00F071
:1067C0009FB830B4044696230800214604D0B6236F
:1067D00030BC002200F066B820460021F8E7C1F383
:1067E0000A5210B5C1F3130140F2FF3341F4801196
:1067F0009A4201DA002010BD40F233439A42A2F2DD
:10680000334203DC5242FFF7FCFD10BD904010BD47
:1068100000F0004230F000400AD0C10D01F5607177
:10682000C0F3160042EA0151C20840071143704705
:1068300000200146704701F0004330B421F00041D0
:1068400050EA010206D00A0DA2F56072C1F31301ED
:10685000002A02DC30BC00207047440F44EAC10427
:10686000C100E01830BC00EBC25000F012B8202A82
:1068700006DBCB17203A41FA02F043EAE07306E068
:1068800041FA02F3D040C2F1200291400843194678
:1068900070470029A8BF7047401C490008BF20F07E
:1068A0000100704710B4B0FA80FC00FA0CF050EA16
:1068B000010404BF10BC704749B1CCF1200421FA97
:1068C00004F411FA0CF118BF012121430843A3EB92
:1068D0000C01CB1D4FEA00614FEA102042BF00209F
:1068E00010BC704700EBC35010440029A4BF10BC7B
:1068F0007047401C490008BF20F0010010BC7047E1
:1069000010B5141E73F1000408DA401C41F10001B7
:1069100092185B411A4301D120F0010010BD2DE90E
:10692000F04D92469B4611B1B1FA81F202E0B0FA05
:1069300080F220329046FFF755FD04460F4640EAAC
:106940000A0041EA0B0153465A46084313D0114648
:1069500053EA010019D0C8F140025046FFF751FD3B
:1069600005460E46504659464246FFF73BFD084352
:1069700005D0012004E020463946BDE8F08D002016
:10698000054346EAE0762C4337430A986305E40A58
:10699000A0EB08000022FD0A44EA47540A3002D561
:1069A00000200146E9E7010510196941DDE90845C4
:1069B00000196941BDE8F04DA2E70000064C074D03
:1069C00006E0E06840F0010394E8070098471034BF
:1069D000AC42F6D3FFF718FCC02A0300E02A0300FC
:1069E00070B58C1810F8015B15F0070301D110F891
:1069F000013B2A1106D110F8012B03E010F8016BBE
:106A000001F8016B5B1EF9D12B0705D40023521E40
:106A10000DD401F8013BFAE710F8013BCB1A921CA8
:106A200003E013F8015B01F8015B521EF9D5A142A6
:106A3000D8D3002070BD70B500250024A1B2A8B243
:106A4000002200F007F8641CEF2CF7DB6D1CEF2D23
:106A5000F3DB70BD38B514460B46024600F073FAFE
:106A6000200A8DF800008DF801400221684600F0F0
:106A7000DBFA38BD10B500F0FBFA00F055FAEF2054
:106A800000F08EFAEB2000F08BFA142000F0AAFA46
:106A9000FE2000F085FAEF2000F082FAEB2000F0F3
:106AA0007FFA142000F09EFA842000F079FA40204A
:106AB00000F098FA852000F073FAFF2000F092FAB7
:106AC000862000F06DFAFF2000F08CFA872000F09D
:106AD00067FAFF2000F086FA882000F061FA0A20A9
:106AE00000F080FA892000F05BFA212000F07AFAA9
:106AF0008A2000F055FA002000F074FA8B2000F094
:106B00004FFA802000F06EFA8C2000F049FA012044
:106B100000F068FA8D2000F043FA012000F062FADC
:106B20008E2000F03DFAFF2000F05CFA8F2000F08C
:106B300037FAFF2000F056FAB62000F031FA0020B4
:106B400000F050FA202000F04DFA362000F028FA2C
:106B5000082000F047FA3A2000F022FA052000F061
:106B600041FA902000F01CFA082000F03BFA0820BF
:106B700000F038FA082000F035FA082000F032FA68
:106B8000BD2000F00DFA062000F02CFABC2000F029
:106B900007FA002000F026FAFF2000F001FA60203A
:106BA00000F020FA012000F01DFA042000F01AFA8B
:106BB000C32000F0F5F9132000F014FAC42000F00F
:106BC000EFF9132000F00EFAC92000F0E9F92220B5
:106BD00000F008FABE2000F0E3F9112000F002FAFC
:106BE000E12000F0DDF9102000F0FCF90E2000F0AB
:106BF000F9F9DF2000F0D4F9212000F0F3F90C209E
:106C000000F0F0F9022000F0EDF9F02000F0C8F9F2
:106C1000452000F0E7F9092000F0E4F9082000F031
:106C2000E1F9082000F0DEF9262000F0DBF92A2047
:106C300000F0D8F9F12000F0B3F9432000F0D2F9C8
:106C4000702000F0CFF9722000F0CCF9362000F06F
:106C5000C9F9372000F0C6F96F2000F0C3F9F2201F
:106C600000F09EF9452000F0BDF9092000F0BAF9C6
:106C7000082000F0B7F9082000F0B4F9262000F051
:106C8000B1F92A2000F0AEF9F32000F089F9432091
:106C900000F0A8F9702000F0A5F9722000F0A2F928
:106CA000362000F09FF9372000F09CF96F2000F0AB
:106CB00099F9ED2000F074F91B2000F093F90B20F6
:106CC00000F090F9AE2000F06BF9772000F08AF91F
:106CD000CD2000F065F9632000F084F9702000F009
:106CE0005FF9072000F07EF9072000F07BF904200F
:106CF00000F078F90E2000F075F90F2000F072F91D
:106D0000092000F06FF9072000F06CF9082000F06E
:106D100069F9032000F066F9E82000F041F9342019
:106D200000F060F9622000F03BF9182000F05AF9F9
:106D30000D2000F057F9712000F054F9ED2000F01B
:106D400051F9702000F04EF9702000F04BF9182036
:106D500000F048F90F2000F045F9712000F042F9E9
:106D6000EF2000F03FF9702000F03CF9702000F0B7
:106D700039F9632000F014F9182000F033F91120DC
:106D800000F030F9712000F02DF9F12000F02AF91F
:106D9000702000F027F9702000F024F9182000F08E
:106DA00021F9132000F01EF9712000F01BF9F320E7
:106DB00000F018F9702000F015F9702000F012F9B9
:106DC000642000F0EDF8282000F00CF9292000F0F4
:106DD00009F9F12000F006F9012000F003F9F12093
:106DE00000F000F9002000F0FDF8072000F0FAF8AC
:106DF000662000F0D5F83C2000F0F4F8002000F008
:106E0000F1F8CD2000F0EEF8672000F0EBF8452017
:106E100000F0E8F8452000F0E5F8102000F0E2F876
:106E2000002000F0DFF8002000F0DCF8002000F087
:106E3000D9F8672000F0B4F8002000F0D3F83C2027
:106E400000F0D0F8002000F0CDF8002000F0CAF8E3
:106E5000002000F0C7F8012000F0C4F8542000F032
:106E6000C1F8102000F0BEF8322000F0BBF89820E6
:106E700000F0B8F8742000F093F8102000F0B2F899
:106E8000852000F0AFF8802000F0ACF8002000F082
:106E9000A9F8002000F0A6F84E2000F0A3F800208A
:106EA00000F0A0F8982000F07BF83E2000F09AF85F
:106EB000072000F097F8512000F072F8002000F051
:106EC00091F8352000F06CF8212000F069F81120CD
:106ED00000F066F8782002F0C1FB292000F060F88D
:106EE000142002F0BBFB09484088032809D3084856
:106EF0000849401AC008032101EB004006A103F035
:106F000037FB03F0F7F90028FBD110BDC85B002068
:106F1000D02B0300002B03006763396130312069F7
:106F20006E6974206F6B000010B51D2003F08AF8A5
:106F3000142002F093FB1D2003F0A1F8BDE81040DF
:106F4000782002F08BBB2DE9FC4107461C46154614
:106F50000E462A2000F024F8380A8DF800008DF83B
:106F60000170280A8DF802008DF80350042168464C
:106F700000F05AF82B2000F013F8300A8DF80400C6
:106F80008DF80560200A8DF806008DF80740042171
:106F900001A800F049F82C2000F002F8BDE8FC81BF
:106FA00011B581B01F2003F04DF81E2003F04AF800
:106FB0000A4C0020207003460090012201A90848D5
:106FC00002F0DAFB18B100F005FC00E020BF2078E9
:106FD0000028FBD01F2003F052F81CBDC859002028
:106FE0009425030011B581B01F2003F02BF81E205B
:106FF00003F045F80A4C002020700346009001225F
:1070000001A9084802F0B8FB18B100F0E3FB00E06A
:1070100020BF20780028FBD01F2003F030F81CBDD3
:10702000C859002094250300F8B505460E461F20D8
:1070300003F008F81E2003F022F80B4C002020700B
:1070400003460090F2B22946084802F095FB18B1B9
:1070500000F0C0FB00E020BF20780028FBD0BDE896
:10706000F8401F2003F00BB8C859002094250300F6
:1070700010B51B2002F099FF1E2002F096FF1D2084
:1070800002F093FF1F2002F090FFBDE810401B208C
:1070900002F0F5BF2DE9F8430025DFF894804FF4A6
:1070A000807601242F460095304603F007F838B16A
:1070B000D8F80403204203D0304602F0F5FF254300
:1070C000361D64007F1CB6B2082FEDD34FF4BE749A
:1070D000204602F0F3FF48B1204602F0E5FF45F0FC
:1070E00000456A460121002002F096FF15F0FF0FCF
:1070F00016D0012600242E420ED008EB8401D1F8D0
:107100001005D1F81015C0F304200A4AC1F301415B
:1071100052F8242002B190477600641C082CEAD370
:10712000002D02DA684604F0F1FDBDE8F8830000A6
:1071300000600040605D002070B54FF480763046FE
:1071400002F05CFA114CB50560B1304602F05DFA10
:107150000120C5F80803607920B901206071216819
:10716000002088474FF48276304602F047FA002824
:107170000AD0304602F049FA0220C5F80803216817
:10718000BDE870400120084770BD0000E8590020AC
:1071900002490248091F0968006808475C5A002034
:1071A00000F0F2B970B50E46144900EB400001EB57
:1071B000C0051446E86A183520B101280FD002280E
:1071C00005D113E0284600F013FAA04201D20024B2
:1071D00011E022463146284600F042FA0BE02846EC
:1071E00000F006FAA042F4D20446F2E731462846FF
:1071F00000F009FA0446204670BD000060660020D9
:10720000F8B51248124E04464FF48C7103F097FC07
:1072100000281AD00025C4F81851D4F8180100909D
:10722000F07F3446FF2806D0A17F11B102F011FF94
:1072300001E002F032FF65772572D4E9002101B048
:1072400004F10800BDE8F0401047F8BD00300040F0
:10725000605E002002494FF0402005F009BE0000AA
:107260000C5E002003F000BCF0B5A449A4484FF028
:1072700080540B68D4F830210078D4F83411551CB0
:10728000C0F3031006D0944601270026BCF1060F78
:1072900003D00AE003F0FF0CF6E7B4F82453DFF85C
:1072A00064C2C5F30425CCF80050DDB2062D06D12A
:1072B000032804D1DFF854C2934DCCF87450551C08
:1072C00004D09446BCF1060F03D00AE003F0FF0C93
:1072D000F8E7D4F84452DFF838C2C5F34235CCF8A9
:1072E0000050DDB2062D08D1032806D1894DD5F80E
:1072F00000C02CF0807CC5F800C0551C04D094461A
:10730000BCF1060F03D00BE003F0FF0CF8E74FF0E1
:107310008045C5F80C61C5F810617D4D2D1F2E60AC
:10732000DDB2062D08D1032806D1DFF8E4C103251C
:107330000CF1640CCCF80050DDB2062D10D10328FE
:107340000ED1DFF8D4C10525CCF80050724D783548
:107350002F60714D08352E600CF104063F25356015
:10736000551C04D016460D46062E03D05BE0DEB257
:107370000546F9E7ED1E012D55D9684D2D68684E7B
:107380003560664D2D1D2D68361D3560634D083501
:107390002D68361D3560614D0C352D68361D356004
:1073A0005E4D10352D68361D35605C4D14352D68E9
:1073B000361D3560594D18352D68594E20363560CB
:1073C000564D1C352D68361D3560544D20352D68C1
:1073D000361D3560514D24352D68361D35604F4DB5
:1073E00028352D68361D35604C4D2C352D68361DE1
:1073F00035604A4D30352D68494E40363560474D31
:1074000034352D68361D3560444D38352D68361DB0
:107410003560424D3C352D68361D35603F4D403559
:107420002D68361D3560551C03D01646062E02D039
:1074300007E0DEB2FAE7D4F858523A4E05F04F05AD
:107440003560551C03D01346062B02D008E0DBB292
:10745000FAE735480368DB0702D06FF001030360E9
:10746000062A07D1C91E022904D93048016841F40F
:107470008061016027487438016841F4700101603F
:10748000BFF34F8FBFF36F8FD4E94C104FF0102232
:10749000062907D1C01E032804D9D2F808021C49C6
:1074A0001C310860D2F80002002803DBD2F8040285
:1074B00000281FDA012004F0D5FA1521C2F80012C5
:1074C0001B480368002BFCD0C2F804120168002995
:1074D000FCD0002004F0C6FABFF34F8F0D48F038FF
:1074E0000168144A01F4E06111430160BFF34F8F5A
:1074F00000BFFDE7114910480860F0BDE00F00F043
:10750000E80F00F0403501400DF0ADBA00C0074073
:107510003C050040FCED00E0105600400404001063
:1075200020C50040E40E0040000400403C1700402D
:1075300000E401400400FA050090D003485B0020FD
:1075400004220249024801F0E9BB0000845E0020E9
:107550000080004004220249024801F0DFBB000025
:10756000905E00200090004004220249024801F091
:10757000D5BB00009C5E002000A0004001480068D0
:1075800000470000F059002010B5124C0220206185
:10759000606111A0A06104F17800E0614FF4007017
:1075A00020620020A06260620BA1A164E06204F589
:1075B0001E71E1641021A065C4E91410E06509A101
:1075C000E01DFEF75EFF08A12046FEF75AFF2020CF
:1075D000A07110BD606600205465726D696E616CAB
:1075E00000000000525454005345474745520000E4
:1075F0000269C1688A4203D88068401A104400E0DA
:10760000501A401E70472DE9F047C4681746894656
:1076100006464FF000083069A04201D9051B02E080
:10762000B168201A0D1AB0686D1E001BA84200D860
:107630000546BD4200D33D4670682A46204449466F
:10764000FEF7F4FEB0687F1B2C44A844A944A04276
:1076500000D10024F460002FDDD14046BDE8F08762
:107660002DE9F04104468846D4E90207C51BE168CC
:10767000606816460844B54206D94146FEF7D6FE74
:10768000B819E060BDE8F0812A464146FEF7CEFE1B
:10769000761B08EB050132466068FEF7C7FEE66020
:1076A000F0E702E008C8121F08C1002AFAD17047AB
:1076B0007047002001E001C1121F002AFBD1704772
:1076C0000121202803DA81400548014003E04028D9
:1076D00002DA2038814009B101207047002070474C
:1076E000FC06FFBD800701D00020704701207047D5
:1076F000C3688B4206D811440069491E814201D8F3
:10770000012070470020704710B50122022100209F
:1077100000F0E6FC08B1072810D107220221012061
:1077200000F0DEFC08B1072808D100210A22084633
:1077300000F0D6FC08B1072800D1002010BD0000E1
:1077400072B603F011F800BF02F0D4FD0028FBD19F
:10775000144D154915486A88081AC4082AB1012031
:1077600000EB044012A102F003FF14480068C007B8
:1077700000D000BE6888022805D3022000EB044038
:107780000FA102F0F5FEBFF34F8F0C48E4380168FB
:107790000F4A01F4E06111430160BFF34F8F00BF56
:1077A000FDE70000C85B0020D02B0300002B030086
:1077B000466174616C206572726F7200F0ED00E0DA
:1077C00053797374656D20726573657400000000F1
:1077D0000400FA050EB500210091CDE901106A46BA
:1077E00044F20100FFF7ACFF0EBD000030B5426867
:1077F0000B4C1379E15C0120FF290ED0FE290DD03E
:1078000012684FF4A86505EB81015158054A52F8FA
:107810002320914202D1FF20E054002030BD00001F
:10782000515A0020B45E002003681B8B9BB2534367
:107830006422B3FBF2F292B2AFF3008070B504465B
:10784000006816460D4690F8212001EB450100EB3B
:107850008101022A01D0082070BD4968B14205D1DA
:10786000C16909B36068007988471DE02046FFF7C9
:10787000BDFF08B1112070BD61680C4AFE20097976
:10788000505432462946204604F07EFB2068C069E9
:1078900050B16168064A0220097902EB410148555E
:1078A0000221606803F0E9FC002070BD515A0020FD
:1078B000C85E00202DE9F84F07688946054601EBB0
:1078C000490897F821001E46924607EB880410B13C
:1078D0000820BDE8F88F4FF0000B3248C4F804B020
:1078E000A672006800900A22296802EB8800085CF2
:1078F00040B100208DF801006946504603F0F4F9CC
:10790000B0B901E00120F5E747F828A04FF00108E1
:107910004FF0A04108FA0AF016B1C1F80C0501E0D9
:10792000C1F808050027E019083003F0ADFA08B1E6
:107930000420CEE77F1CFFB2022FF4D3207A03F09D
:10794000FBFA607A03F0F8FA206836B103F078F9B0
:107950000646206803F078FA05E003F075FA06465B
:10796000206803F06DF907464946686803F076FC25
:107970000146207A324603F0BDFA0221686803F01E
:107980006DFC0146607A3A4603F0B4FA84F80B8045
:107990006968054A097902EB410202F809B0002042
:1079A00097E7000010260300C85E00202DE9F0478D
:1079B0000025DFF8689007680446A846626805EB72
:1079C000450007EB8006137909EB430202F80580B6
:1079D000F17A71B10A22216802EB8000085CD8B10B
:1079E0000021306803F0F0F9306803F0DBF9C6F8E5
:1079F00004806D1C022DE1D36168094AFF200979DA
:107A00005054606803F009FC606803F057FC0220E2
:107A100087F82100BDE8F0870121E2E7C85E002079
:107A2000515A00202DE9F74F84B00E00044607D0CC
:107A3000256895F8210028B1082007B0BDE8F08F2F
:107A40000B20FAE701F054FE18B1852801D004207C
:107A5000F3E703F03FF920B903F002F908B103207E
:107A6000EBE75048DFF840A1002100784FF0010B10
:107A7000C0F30310032821D08AF800B0FF2285F854
:107A80002020002091464FF0FF3C00BF00EB400754
:107A900005EB8703401CD97283F8089083F809909E
:107AA000C0B245F827C00228F0D305F1200003F04A
:107AB000EBF930B1204604F001FAC8E78AF800106B
:107AC000DCE7002756F82720501C12D0F019394661
:107AD000037A2046FFF7EEFE5FEA000804D0204656
:107AE00004F0ECF94046A8E7002239462046FFF7AB
:107AF000A5FE7F1CFFB2022FE4D3002009224FF421
:107B00008053316901E04908401C994201D39042F9
:107B1000F9D39AF8001009B100B90120234AD2E93B
:107B20000112CDE901128DF804006068204A01A914
:107B300000790290606803F0E5FB070004D020465E
:107B400004F0BCF9384678E7616830690968D1F813
:107B50001015CAB2010F0001FEF753FC0646A861DA
:107B6000606803F05AFBCDF800B05F46042332464C
:107B70000221606803F0B0FB0221606803F076FB2D
:107B80000698E86160680B49074A0079521C41F881
:107B900020406168097902F8019085F82170002081
:107BA0004BE70000E80F00F0505A002010260300B9
:107BB00031BF0200D45E0020F8B504460026174607
:107BC0000D468DF80060684600F042F8D4E90201E5
:107BD000C04370EA010005D09DF8000000F05CF899
:107BE0000020F8BD00F0F2FE40197141C4E9020125
:107BF0009DF8000000F050F8A761206900B12561F0
:107C00002146BDE8F840002004F08EBF38B5044698
:107C100000208DF80000684600F01AF8D4E902014F
:107C2000C04370EA01000DD04FF0FF30C4E90200FC
:107C30009DF8000000F030F82146BDE838400120F2
:107C400004F072BF9DF8000000F026F8002038BD57
:107C500030B5EFF3108172B60D4A9468012324B158
:107C60000370002900D162B630BD93604FF0E0236D
:107C7000D3F88051074C25401560C3F88041D3F8F4
:107C8000844154605A17C3F8842100220270E8E747
:107C9000A85E0020FC06FFBD0B498A68002A11D0AF
:107CA00000280FD1EFF3108072B60B684FF0E0227E
:107CB000C2F800314B68C2F8043100228A60002803
:107CC00000D162B670470000A85E00202DE9F041A7
:107CD000064608680C46411C4FF0A0474FF00105CE
:107CE00006D005FA00F1C7F80815206802F065F91A
:107CF0006068411C02D0002102F045F93168A0699A
:107D0000C1F82405607D227D31681043C1F86C05FF
:107D1000D4E900123068C0F81425C0F80C15207D95
:107D2000012815D1A068411C02D0002102F02BF9D6
:107D3000E068411C05D08540C7F80855E06802F0AE
:107D40003CF9D4E902123068C0F80825C0F81015D3
:107D5000BDE8F0812DE9F041064608680C46411C5B
:107D60004FF0A0474FF0010506D005FA00F1C7F823
:107D70000815206802F02BF96068411C02D0002130
:107D800002F00AF93168A069C1F82405607D217DFF
:107D900032680843C2F86C05D4E900123068C0F8B4
:107DA0000C15C0F81425207D012815D1A068411CB0
:107DB00002D0002102F0F0F8E068411C05D08540B7
:107DC000C7F80855E06802F002F9D4E902123068F9
:107DD000C0F80825C0F81015BDE8F081400C01D0AE
:107DE000002070470120704700B585B014220B4970
:107DF0006846FEF71BFB01208DF808000748084A7B
:107E000069464838FFF70EFE08B1FFF7E3FC034868
:107E10004838FFF7CBFD05B000BD000040D9020097
:107E200025BF020070B50446642800D96424074DBC
:107E300000206870224600210548FFF7F5FC112854
:107E4000F8D068780028FCD070BD00006859002088
:107E5000F8D8020010B51A4C0188606810290ED0BD
:107E600011292BD1401E606028D1FFF74DFC00285E
:107E700024D02168002921D0BDE810400847D0B99E
:107E800000210122084600F02BF908B107280FD184
:107E900007220221012000F023F908B1072807D1A9
:107EA00004220221002000F01BF920B1072802D093
:107EB000216801B188476068401C606010BD000007
:107EC000CC5900202DE9F04701883B4E40F2F319D0
:107ED0004FF6FF7510291BD011293ED0122954D01E
:107EE000502946D1C188F289841D914241D16189CE
:107EF00002293ED18688304600F054FE050038D075
:107F000004F10C0000F0E8F8A8B3294630464EE032
:107F1000C17B8788044601292BD1A846284600F05A
:107F200041FE050017D02F800020287223484346C9
:107F30004A460168C5F80A104068C5F80E0004F109
:107F4000100105F10A0000F01EFF6872F089002898
:107F50000FD129462AE0042013E0808800F022FE99
:107F6000040006D06068FFF751FE08B104F0A8FADB
:107F70002580BDE8F087FFE76868FFF747FE002827
:107F8000F7D0BDE8F04704F09BBA8788064638462C
:107F900000F008FE0400ECD02B464A4606F108012A
:107FA00004F10A0000F0EFFE607221463846BDE899
:107FB000F04700F0BDB90000B45C0020D4590020A7
:107FC0002DE9F04F044686880188424897B08346E1
:107FD00010290CD0112950D0103019296AD01A2933
:107FE00074D1217A0C09042C4DD301224CE0394D77
:107FF000083DA868C0430B9069680BA801F088FA97
:108000000B990CA800F074F92C220CA96846FEF715
:108010000DFA0027E946A84610E000BF09EB47002B
:108020005FF00005B0F804A008EB85005146001D84
:1080300001F042FA6D1C1E2DF6D37F1C0098B84249
:10804000ECD8142E05D317B00420BDE8F04FFFF78D
:10805000C1BB3146584601F045FA314608F10400EB
:1080600001F040FAE07B022830D117B03146BDE87C
:10807000F04F1848001D01F035BA17B03146BDE881
:10808000F04F01F019BA0022314600F095FB032CA5
:1080900001D3012200E000220E4831460C3000F0EE
:1080A0008BFB022C01D3012200E00022094831465B
:1080B000083006E0217A002908D1617AC1F3C002B4
:1080C000314617B0BDE8F04F00F076BB17B0BDE801
:1080D000F08F0000D85C0020007800F001007047AD
:1080E00070B50023042810D20D4D00EB4004012A86
:1080F00002D101290CD00022094E00EB400030448F
:1081000061B1012906D0022906D00723184670BDA7
:108110000E30C2B22A55F9E74270F7E78270F5E7F0
:10812000745C0020DFED051A20EE210A00EEA10AA2
:10813000DFED030A01EE600A704700009E020C3E6C
:10814000B1FE39BF2DE9F84F0546861C00208DF899
:10815000000091460F464FF0010A6846FFF778FD90
:108160001B4C04F21C4860683860D4E90101194FC7
:10817000401A3968081A0EE00121404601F0C2F9A0
:1081800000F030FE0146404601F0BCF9D4E901019F
:10819000401A3968081A401C8642EDD8B9F1000F20
:1081A00003D0052065F3891002E0062065F39F5097
:1081B00061683A68114004EB8101C860606830442E
:1081C00060609DF80000FFF767FD5046BDE8F88F3E
:1081D00000620020D85A002070B50D4604460A29D6
:1081E00002D10D21FFF7F8FFA0682268411CA160B1
:1081F0001554D4E90101814204D32046BDE8704002
:1082000001F03DBB70BD00000448816840688142B8
:1082100001D101207047002070470000006200205B
:1082200005494FF0FF32082841F8202002D30844C6
:1082300080F8482070470000605D0020F0B54FF0E6
:10824000FF3512B10023082601E008230C260C4C50
:1082500005E000BF54F823707F1C04D05B1CB342C0
:10826000F8D32846F0BD26185DB286F8305044F8A1
:108270002310002AF5D1E11881F84800F1E7000049
:10828000605D00200249084490F93000704700000A
:10829000605D002070B5084C050009D010342168DD
:1082A000002907D008682060496828468847F6E713
:1082B0000834F4E770BD00004C5D0020054A012140
:1082C00020B1012805D19170FFF7E4BF5170002063
:1082D000FAE770474C5D002010B5D0E90234D1E9CF
:1082E0000220D11AA04101D3012010BD002010BDF1
:1082F00073B58CB00646002000900D9880B1002424
:108300006D4621460DA801F0E2F830B1009805EB6A
:10831000400084800098401C0090641C142CF0D312
:108320002C2269463046FEF781F80EB070BD000081
:1083300038B54A7A0F4B62B100220A725969002996
:1083400006D001228DF80020ADF80200684688476B
:1083500038BD0A7A62B19B684C68024619462046CD
:10836000FFF72AFC0028F3D0BDE8384004F0A8B895
:108370005B68F1E7B45C00202DE9FF410C4620B1B9
:108380004FF4064004B0BDE8F0812079002748F2A0
:10839000096538B141F61D5601281BD0022826D0A8
:1083A000681DEFE70220207102970397E0680190B3
:1083B000694601A803F052FF50B102988188E1801C
:1083C00000882081BDF80010029803F0C5FFD9E7AE
:1083D0002846D7E70A4B6A460021A01D03F0F6FEA7
:1083E00038B1074918398F61CF61A842CAD13046E8
:1083F000C8E703488188019803F0AEFFF5E7000065
:10840000AC5A00202DE9FF47F2EE040A044620EEA4
:10841000200A89461E469046BCEEC00A002101ADE6
:1084200010EE100A70B10A22B0FBF2F302FB130344
:10843000B0FBF2F06B54491CC9B20028F4D1491EBC
:108440004FB219E000208DF804000121F7E708D1B0
:1084500043460A2249462046009600F07FF80F3432
:10846000A4B2EA5D434649462046009600F076F8FD
:108470000F347F1EA4B27FB2002FE8DABDE8FF8779
:108480002DE9FF478A460C9E9946044600210DF1CE
:10849000040892B10A204346B2FBF0F500FB152513
:1084A000B2FBF0F25D54491CC9B2002AF4D1032991
:1084B00000D90321491E4DB220E000208DF80400B0
:1084C0000121F7E718F805204B4651462046009653
:1084D00000F044F804F10F07B8B24B460B225146A6
:1084E000009600F03BF81E34A0B24B460B225146DA
:1084F000009600F033F86D1EBCB26DB2002DE1DACB
:10850000BDE8FF872DE9FF5F9A4680460E46454647
:1085100000EB0A091EE000BF0E98A5EB080B3446DD
:10852000371813E0A01B1FFA8BF180B200FB0A1072
:10853000029931F81000C0430204120C00D00F9AC7
:1085400021462846FEF786FA641CA4B2A742E9D861
:108550006D1CADB2A945DFD8BDE8FF9F2DE9FF5FD7
:108560000E468046054600F10F0926E00298344683
:10857000C0EB0010A5EB080B00EB800A06F1140716
:1085800017E000BFA11B89B21FFA8BF0C1EB0111EC
:10859000014401EB8A00039931F81000C043020442
:1085A000120C00D00E9A21462846FEF753FA641C9E
:1085B000A4B2BC42E6D36D1CADB24D45D6D3BDE8E6
:1085C000FF9F000010B50021024800F0ACFF80F3CF
:1085D000100010BD1C6600200068D0F8040570472C
:1085E00090F90400002809DB00F01F0201219140EE
:1085F0004009800000F1E020C0F80012704710B57B
:1086000003780022072B06D2DFE803F005040610EA
:10861000202930000A7010BD01230B7003898B8163
:108620008388CB81C06888600A7410BD02220A70FA
:1086300002898A818288CA81C2688A60807D062810
:1086400002D00020087410BD0120FBE703220A704D
:10865000C2888A810289CA81C068886010BD0423EB
:108660000B70C0888881CA818A6010BD052008709F
:1086700010BD30B50446006887B00D4680680028FC
:108680001FD018216846FDF7EAFE0195A068059005
:10869000207910B1012810D107E001208DF80000E9
:1086A00020690290E068039005E002208DF8000048
:1086B000E068000302906069049020688168684661
:1086C000884707B030BD000070B5064D064600244F
:1086D00055F8241009B130468847641C042CF7D3A0
:1086E00070BD0000945F00202DE9F04F0E46074654
:1086F0009019401EB0FBF6F106FB110485B057F847
:108700002450621E3146384603F056FD0490A21EE6
:108710003146384603F050FD0390E21E314638469C
:1087200003F04AFD0290221F3146384603F044FD13
:108730008346621F3146384603F03EFD0190621CBD
:108740003146384603F038FD8246A21C3146384691
:1087500003F032FD8146E21C3146384603F02CFD21
:108760008046221D3146384603F026FD0090621DEA
:108770003146384603F020FD01460498854219D958
:108780000398854216D90298854213D95D4511D9BF
:10879000019885420ED955450CD94D450AD9454514
:1087A00008D90098854205D98D4203D9012005B02A
:1087B000BDE8F08F0020FAE70AB100F093BE00F0A8
:1087C0007BBE406803F0A6BC70B510B14FF4064004
:1087D00070BD1C4C0025207B08B1257301E000F022
:1087E000A5F8207808282AD2DFE800F02904080C30
:1087F00010291422BDE8704000F026B8BDE8704092
:1088000000F082B8BDE8704000F064B8BDE8704088
:1088100000F040B80620207060880A4900EB800014
:10882000283901EB80004068BDE8704003F034B99E
:10883000072020706560BDE8704003F03BB948F246
:108840000E6070BD586000201149F0B48A1C0020F1
:108850000346A1F128050C18A67A4EB1A37200EBCD
:10886000800405EB8404E66816B9247C012C0AD048
:10887000401C80B20228EED30B704B804B60F0BCE2
:1088800041F61D5070471080F0BC00F03DB800006C
:10889000586000200C48418801EB8102A0F12801BA
:1088A00001EB8201CA6852B105210170074802211B
:1088B0008180016800230122054801F0D9B8042213
:1088C00002704968F6E7000058600020BC5A00209A
:1088D0004C5B002038B50A49084803240B684268FD
:1088E000898803EB810153880470DB1C00201B0482
:1088F00000909B0B034801F0D1F938BD586000206F
:10890000BC5A00204C5B0020074910B54888091D5F
:1089100003F0F4FC18B1BDE81040FFF7DBBFBDE881
:108920001040FFF7B7BF00005860002070B5194C29
:108930000121207808281AD2DFE800F00419191C58
:10894000252929182089134A401C20810020608095
:108950002073283A00EB800312F8233043B1002340
:108960002518401C80B2AB720228F3D3217070BD71
:108970000123F5E76068084940888A88C01C1044D4
:108980008880022004E000F009F8062000E00720BB
:10899000207070BD58600020BC5A00200A49094868
:1089A0004988026801EB81030749283901EB8301FB
:1089B0004B6803604A6082880A810222828000201C
:1089C00008747047BC5A00205860002010B50B484E
:1089D000FFF702FE094A083AD2E90434C018D2E986
:1089E000063244F10001C31A71EB020204D24FF0C7
:1089F0008072801841F1000110BD0000205A002053
:108A0000428800EB82020C328A4201D90220704770
:108A10008188A1F57F42FF3A06D0018821B18068A4
:108A2000401C01D00020704701207047884204D2CA
:108A30000068401C01D001207047002070470000F2
:108A400070B5022A2DED028B03D20020BDEC028B03
:108A500070BD521E8A4200D90A460026354607E0FC
:108A60005C1B641E00D50C446D1C50F82440264449
:108A70009542F5D300EE102ADFED130A1348B8EE45
:108A8000400A408860EE200A00EE106A0328B8EE23
:108A9000400A80EE808A0DD30D480E49401AC00866
:108AA000032101EB00400CA1BCEEC80A10EE102A15
:108AB00001F062FD01F01EFC0028FBD1BCEEC80AEB
:108AC00010EE100AC2E7000000606A47C85B002091
:108AD000D02B0300002B030062706D3A2025640048
:108AE0002DE9F0412C4D002420B16C604FF406407C
:108AF000BDE8F0810879012250B1284B01280BD044
:108B0000254A02260832022821D0032829D12CE048
:108B10000A7102F0CFFF22E05FF0000000EB80015D
:108B200013F82110022908D0401C80B20228F5D386
:108B30002A706C6041F61D50DAE700EB800003F804
:108B4000204003EB8000406802F0A6FF07E00C71B4
:108B50009680116800230122114800F089FF002847
:108B6000C6D06C6048F20D60C2E70C480C7128302A
:108B70004188106801EB810703EB8701D1F804C03D
:108B8000C2F800C04860B2F804C0A1F808C09680DE
:108B900003F82740D8E70000B45A002030600020D6
:108BA0004C5B00200146034802888A4200D0002026
:108BB00070470000A05C00202DE9FC5F0E0083469A
:108BC000DDE90C47C6F1000098469246814600D484
:108BD0000846012503E000BF90FBFAF06D1C5045EC
:108BE000FADAA84500D9454624B1002E01DB780702
:108BF00000D5641EB80702D5B8F1000F0AD0F807F7
:108C000008D13CB1A54205D220215846641EFFF789
:108C1000E3FAF6E7002E02DA4E462D2102E078074D
:108C200003D52B215846FFF7D7FA07F00300022897
:108C30000BD1B8F1000F08D13CB1A54205D23021CB
:108C40005846641EFFF7C8FAF6E7CDE900474346E9
:108C500052463146584604F067FDBDE8FC9F0000CF
:108C600070B50D46044600684FF4887101F093FF1B
:108C70004FF49071206801F08EFF4FF492712068DC
:108C800001F089FF4FF4A271206801F084FF4FF4D6
:108C9000AC71206801F07FFF20681249C0F804130E
:108CA0002068690740F30730090E002804DB00F153
:108CB000E02080F8001405E000F00F0000F1E02053
:108CC00080F8141D206840F30730002809DB00F00D
:108CD0001F02012191404009800000F1E020C0F80E
:108CE000001170BD100342000246002012685307B5
:108CF00013D502F00300012802D002280CD105E0B0
:108D0000C2F383100B68801C184404E00223086837
:108D100003EB925210440860012070472DE9F041A6
:108D2000174688460646002417E000BF4FF4A0709F
:108D300000EB84054FF480307159A04059B1D6F84A
:108D40000413014207D02946304601F0FDFED8E960
:108D5000002128469047641CE4B2BC42E6D3BDE83B
:108D6000F08100000121814003484068014201D0A8
:108D700001207047002070470C5A00200146012056
:108D80008840FFF72BB8F0B58488A518944200D826
:108D90002246A41AC288D6189A4200D81346D21A7C
:108DA0004B880788BB420CD34088834209D8888807
:108DB000A04206D3A84204D8C888904201D3B0424A
:108DC00001D90020F0BD0120F0BD01218140C80380
:108DD00000D001207047800701D00020704701209B
:108DE000704770472DE9FF410026244800F087FBBB
:108DF0002248001F074600F082FB214C2149A06851
:108E000000900D6800E000986946284004EB80005F
:108E10000C30FFF769FF0028F5D101AA009901EA9B
:108E2000050304EB8303491CDB6842F82030401C37
:108E300000910228F2D3019800F0030001280BD022
:108E4000022810D10198032101EB90500099BDF840
:108E50000A6001EB900005E00198BDF80A60C0F3DC
:108E6000831008440090384600F046FB08B1009893
:108E7000A06004B03046BDE8F08100001866002014
:108E800000620020D85A00202DED048BADF5767DD0
:108E90004FF48041002001F0D7FB08B1FEF79AFCA7
:108EA00001F00EFA82484088032809D3814882499C
:108EB000401AC008032101EB004080A101F058FBDB
:108EC00001F018FA0028FBD103F09CFF03F0A0FB8F
:108ED00004F09EF8FDF7CEFDFDF7ADFDFEF784FF33
:108EE0006420FEF79FFF9FED7D0A0021084602F0F7
:108EF000F3FD00F007F903F033FE79480DF56A7CC5
:108F00000FC88CE80F000020F390F490F290044614
:108F1000EE900546EF9003F0DDFD002637464FF456
:108F2000FA6B4FF01E090DF5727A4FF47A7800BF94
:108F30009DEDEE8A08EE904ADDEDEF9A09EE105AAB
:108F4000EFA9EEA800F064F99DEDEE0AB8EE681AFC
:108F5000F8EE480AB8EE400AFFF7E4F8BCEEC00AA3
:108F6000B8EE491AF8EE690A10EE104A9DEDEF0AC4
:108F7000B8EE400AFFF7D6F8BCEEC00AF3AB6422A5
:108F800010EE105A214602A803F004FAF4AB642252
:108F9000294666A803F0FEF9CDE900A96422CAA912
:108FA00002A8F39B02F04EFE03F0B2FDB0FBF8F115
:108FB000CF1B5F45BCDBC34603F0AAFDB0FBFBF84B
:108FC0009DEDEE8A2746DDEDEF8A09EE105AEFA9F6
:108FD000EEA800F01DF900EE107AF8EE480AB8EE9F
:108FE000401A9DEDEE0AB8EE400AFFF79BF8BCEE82
:108FF000C00AB8EE491AF8EE680A10EE104A9DED64
:10900000EF0AB8EE400AFFF78DF8BCEEC00AEAA8F6
:10901000009010EE105AB2B24FF478433946204611
:1090200002F0C4FD761CDC2E00D1002643F6982009
:10903000844202D20020019020E0F3AB642221465A
:1090400002A803F0A7F9F4AB6422294666A803F04E
:10905000A1F9CDE900A96422CAA902A8F39B02F0F4
:10906000F1FD0A221E21CAA8F29BFFF7E9FC01903C
:10907000642266A902A8F39B03F072FB009003F040
:10908000D1FDB0EE408A03F043FDB0FBFBF1A1EB54
:1090900008070A2000F0C2FA41F2883087428FDBCD
:1090A000DDE90001B0EE480A02F016FD84E7000099
:1090B000C85B0020D02B0300002B03000D0A54577F
:1090C000492073656E736F72206578616D706C6591
:1090D00020737461727465642E000000000000004B
:1090E00020D9020010B50021042000F047F900212A
:1090F000062000F043F90021BDE81040052000F0F3
:109100003DB9000008B50021092000F037F94021E1
:10911000092000F033F94FF47A7000F08FFA012241
:109120006946002000F04AF8C021022000F026F92C
:109130000021032000F022F90021062000F01EF992
:109140000021042000F01AF90021052000F016F992
:1091500000211122084600F09AF8032000F0E8F8F8
:10916000002000F082F8012000F0F6F8032000F063
:10917000CDF8B0EE000A00F099F8B0EE000A00F069
:10918000ADF809484088032809D308480849401A1F
:10919000C008032101EB004006A101F0E9F901F04C
:1091A000A9F80028FBD108BDC85B0020D02B030024
:1091B000002B03006D6178206F6B0000F7B5124C37
:1091C00082B0002715460E46277001200346009006
:1091D00002AA57210D4800F002FB08B1FEF7FAFA87
:1091E00020780028FCD0277008485721001D3246FF
:1091F0002B4602F097F908B1FEF7ECFA2078002828
:10920000FCD005B0F0BD00006859002078D90200FC
:109210003EB50C460546012202A90020FFF7CEFF0D
:10922000012202A91046FFF7C9FF0622694607205E
:10923000FFF7C4FF9DF800009DF80110000440EA0C
:1092400001209DF802109DF8042008439DF80310AA
:10925000C0F31100090441EA02219DF805202060B5
:109260001143C1F3110129603EBD38B50446012206
:1092700069460A20FFF7A2FF9DF8000064F35F1023
:10928000C1B28DF800100A2000F078F838BD002334
:1092900043EA4010C0B201F0010140EA011002F0BF
:1092A0000F010143082000F069B8000010B510EE6E
:1092B000100AFDF7ADFA9FED071B53EC112BFDF7DC
:1092C00011FAFDF78CFAC1B2BDE810400C2000F095
:1092D00055B800009A9999999999C93F10B510EE1F
:1092E000100AFDF795FA9FED071B53EC112BFDF7C4
:1092F000F9F9FDF774FAC1B2BDE810400D2000F095
:109300003DB800009A9999999999C93F38B5044692
:10931000012269460A20FFF751FF9DF8000000F086
:109320007C0121438DF800100A2000F027F838BD99
:1093300038B50446012269460920FFF73FFF9DF832
:10934000000000F0F80121438DF80010092000F022
:1093500015F8FFF7C7FE38BD08B5012269460A2097
:10936000FFF72CFF9DF800008C2101EA80018DF8A9
:1093700000100A2000F002F808BD00001CB50A4CDD
:109380008DF804008DF80510002020700090022355
:1093900001AA5721054800F022FA08B1FEF71AFA8F
:1093A00020780028FCD01CBD6859002078D9020024
:1093B0002DE9F047C5881E1DB6FBF5F78946B6FBBB
:1093C000F5F1044605FB176C407916686843DDF833
:1093D00020A0F718001F874200D9C61A166001E0C6
:1093E0002468491E0029FBD1A5EB0C078846B7422B
:1093F00016D818E004EB0C00001D09EB0803BAF1C5
:10940000000F3A4602D00146184600E01946FDF723
:109410000DF82468F61B4FF0000CB844B54201D992
:10942000374600E02F46002EE4D1BDE8F08700006B
:1094300030B5024651B101F057F90021074C08E060
:1094400034F821301568AB4202D11160002030BDE4
:10945000491C8142F4D3052030BD0000605B002030
:1094600070B50C460546FCF7D5FE002802D02188D1
:109470002868084470BD10B50A8849888A4203D11B
:10948000FCF70AFF012010BD002010BD70B50C468E
:109490000546FCF7E4FE002802D0618828680844ED
:1094A00070BD10B50A8849888A4203D1FCF7CEFE08
:1094B000012010BD002010BD01F01F0301229A40C1
:1094C000D243490900EB8100114600F021B84A0956
:1094D00050F8220001F01F0201219140084000D005
:1094E0000120704701F01F0301229A40490900EB57
:1094F0008100114600F01CB8002100F00FB80121D6
:1095000000F016B808B56A46FCF71BFF009808BDC6
:1095100008B56A46FCF7FBFE009808BD08B56A4628
:10952000FCF7F5FE08BD08B56A46FCF7D7FE08BD96
:1095300008B56A46FCF7DEFE009808BD08B56A4625
:10954000FCF70CFF009808BD38B5044600258DF8DF
:1095500000506846FEF77CFB21686268086890420C
:109560000ED9401E08600178238BE26801FB0325B9
:10957000227A2168101AC0B20A79824200D2087198
:109580009DF80000FEF788FB284638BD38B5054633
:1095900000208DF800000C466846FEF759FBE8688D
:1095A000298B201AB0FBF1F12A681068431C136064
:1095B00001709DF80000FEF76FFB38BD10B530B1AB
:1095C000017A42680368891AC9B21A6006E00E205F
:1095D00010BD03681A68541C1C601170491EC9B282
:1095E000F7D2006800210171084610BDC20800F0E2
:1095F00007030120895C98400840704700F18040D3
:109600000068002800D00120704708B500F18040B4
:10961000002101600068009008BD00002DE9F041C4
:10962000040007D0044E4FF47A47751C3846A8470B
:10963000641EFAD1BDE8F081F0D802002DE9F041B6
:10964000040007D0044E4FF47A47751C3846A847EB
:10965000641EFAD1BDE8F08160D902002DE9F04125
:10966000040007D0044E4FF47A47751C3846A847CB
:10967000641EFAD1BDE8F081B0D9020070B50D4C7E
:109680000125207808B185260EE00020A0606060EA
:109690002061E060084801F0A3FA064601F0F6F9FF
:1096A00008B901F087FA257001F07CFA00B1A570C5
:1096B000304670BD4C5D0020BD82020038B50025EB
:1096C0008DF800506846FEF7C3FA084CE068401E6B
:1096D000E060E06828B901F065FA10B901F090FA8D
:1096E000A5709DF80000FEF7D7FA38BD4C5D00204C
:1096F0000448017809B185207047012101700020DC
:1097000070470000085A00202DE9FF411C460378ED
:10971000164D174E45F823200C3545F82340F0CE62
:109720008DE8F0000C788DF800404C788DF8014001
:109730008C788DF80240CC788DF803400C798DF848
:1097400005404C798DF806408C6802940C7B8DF8AE
:109750000C40497B8DF80D1002B1064A6946001D88
:1097600001F064FC04B0BDE8F0810000485E002018
:10977000E82503006DC602001FB5001D069C8DE89C
:109780001E000022694601F007FD04B010BD000074
:109790002DE9F041064604780B4815460F4640F87F
:1097A0002420083040F82430487B10B1084603F0EC
:1097B000A9FA0DB1054A00E0002223463946301DC2
:1097C000BDE8F04101F03CBEF8590020B1CD0200E7
:1097D00038B5001D049C009401F0BCFE38BD38B5BE
:1097E000001D049C009401F0B5FE38BD38B5001D85
:1097F000049C009401F0AEFE38BD0000F0B50546B3
:109800000478154889B0164640F82420124A0869A1
:10981000121DA2F1080742F82400487F3855202283
:109820006846FCF703FE04942878385C48B10EB112
:109830000A4A00E000226946281D01F0F5FF09B040
:10984000F0BD0EB1064A00E00022694605F10C00A9
:1098500001F0B4FEF3E70000E0590020E5D5020076
:109860002DD402000FB408B50399002904D004AA2E
:1098700000926A4600F00FF801B05DF814FB10B5D5
:1098800082680446002A05D0D4E904032168984779
:109890000020A06010BD2DE9FC4791460C008046D9
:1098A00076D014F8011B39B125290ED04046FEF7B9
:1098B00093FC20780028F4D198F80C00002867D099
:1098C0004046BDE8FC47FFF7DABF002001222178BF
:1098D0002B291BD02D2902D0302908D102E040F0DD
:1098E000010001E040F00200641C002AEFD10025D5
:1098F0002A290ED02178A1F130020A2A11D205EBD3
:10990000850201EB4205641C303DF1E740F00400A4
:10991000EAE7D9F800100B1DC9F800300968641C8B
:109920000D44217800232E290BD114F8011FA1F139
:1099300030020A2A05D203EB830201EB4203303BDB
:10994000F3E76C290DD068290BD0692921D00BDCF5
:10995000252918D0582931D063290ED0642915D172
:1099600017E014F8011FECE7702969D0732932D091
:1099700075291BD0782909D120E0D9F80000011DF4
:10998000C9F8001001784046FEF726FC641C90E7F9
:109990006CE0D9F800100A1DC9F800200968CDE96B
:1099A00000500A224046FFF707F9EFE7D9F8001008
:1099B0000A1DC9F8002009680A2206E0D9F800103B
:1099C0000A1DC9F8002009681022CDE90050404660
:1099D00003F0AAFEDAE7D9F8001000270A1DC9F83B
:1099E00000200E68C00705D112E04046761C7F1C9F
:1099F000FEF7F2FB31780029F7D104E02021404640
:109A00006D1EFEF7E9FBBD42C0D9002DF6D1BDE7C2
:109A10004EB13046FCF72EFD074604E020214046BB
:109A20006D1EFEF7D9FBBD4206D9002DF6D103E02D
:109A30004046761CFEF7D0FB31780029F8D1A5E727
:109A4000D9F80000011DC9F8001005683021404612
:109A5000FEF7C2FB78214046FEF7BEFB082000213E
:109A6000CDE90001034610222946B0E7BDE8FC8796
:109A70002DE9F84F8946050032483349304FA0EBB5
:109A800001004FEAD0004FF0010101EB004478885B
:109A90009A46164626D0296800292FD0002E38D0A5
:109AA0006A6849464FF010081268531E13EA090FFE
:109AB00010D172432846FDF71BFE002834D02868D9
:109AC00053463246046901B049462846A446BDE8DB
:109AD000F04F6047002831D020461C4B1CA2CDF827
:109AE000008028E038B10E2000902046174B22A2BB
:109AF00023A100F048FD0E20BDE8F88F38B1082002
:109B000000902046114B29A21DA100F03CFD082029
:109B1000F2E738B10920009020460C4B26A218A18C
:109B200000F031FD0920E7E7788838B1074B234A78
:109B30002046CDF8008012A100F025FD1020DBE7C3
:109B4000BC5B0020B82B0300002B0300872603001A
:109B5000616464725F69735F706167655F616C699E
:109B6000676E656428705F66732C20706167655F3F
:109B70006164647229000000705F66730000000079
:109B8000257320636865636B206661696C6564207A
:109B9000696E202573282920776974682076616CA6
:109BA000756520307825782E00000000705F6673A0
:109BB0002D3E705F617069006C656E00382803008F
:109BC000044801214174007A08B100207047012047
:109BD00070470000745F0020012801D0032808D1DD
:109BE0000449002201284A7400D00020087402F0C1
:109BF00041BA7047745F002070B50246022801D058
:109C0000032A45D1234C207A002841D0012833D0A3
:109C1000022831D120480023022A006802D0032AFA
:109C20002AD11BE0E360017911B1012924D10DE0B3
:109C3000D0E90565711B4FF48056B14200D331461F
:109C4000294481614569A9420ED015E00169491C8A
:109C50000161426991420FD1237213E0E168491C0E
:109C6000E160082908D9E3602372022A0AD00D2195
:109C7000FEF7FFFC02F0F4F9607C28B1BDE870400B
:109C800000F00ABF0021F3E7BDE8704002F0F2B92E
:109C900070BD0000745F0020785A00202DE9F84F55
:109CA000914605004348444A414EA0EB02004FEA6A
:109CB000D0004FF0010202EB00448B467088DDF8C3
:109CC00028A098464FF00E011CD0B9F1000F1FD00C
:109CD0002968002926D00921B8F1000F2DD06A6823
:109CE0005368B8FBF3F703FB1782002A2CD030B17E
:109CF000324B204632A200913CA100F044FC0920E6
:109D0000BDE8F88F60B120462C4B43A2009104E0DF
:109D100030B12A4B204642A2009134A100F033FC1E
:109D20000E20EDE738B1082000902046234B3EA2DC
:109D30002EA100F028FC0820E2E70028DFD0204612
:109D40001E4B3CA20091D7E75846FDF7CBFC1027ED
:109D500098B14846FDF7C6FCB8B142465946284678
:109D6000FDF7C6FCD8B1CDF800A0286843464A46A6
:109D7000C46859462846A047C2E77088002815D015
:109D800020460E4B2CA2009705E0708870B10B4B5B
:109D900020462FA2009715A100F0F5FB06E0708881
:109DA00020B12046054B33A20097F4E71020A7E727
:109DB000BC5B0020B82B0300002B030074260300BB
:109DC00021286C656E202520705F66732D3E705FC4
:109DD000666C6173685F696E666F2D3E70726F6747
:109DE00072616D5F756E69742900000025732063D0
:109DF0006865636B206661696C656420696E202507
:109E000073282920776974682076616C7565203025
:109E10007825782E00000000705F66730000000057
:109E2000705F737263000000705F66732D3E705F39
:109E3000617069006C656E00616464725F69735F74
:109E4000616C69676E6564333228646573742900D8
:109E5000616464725F69735F616C69676E656433C6
:109E600032282875696E7433325F7429705F73729B
:109E700063290000616464725F69735F7769746865
:109E8000696E5F626F756E647328705F66732C20F5
:109E9000646573742C206C656E29000070B541EA0E
:109EA0004201DDE904564FF0A04441EA830141EA52
:109EB000052104EB800041EA0641C0F8001770BD9F
:109EC00070B541EA4201DDE904564FF0A04441EA91
:109ED000830141EA052104EB800041EA0641C0F814
:109EE000001770BD70B541EA4201DDE904564FF03C
:109EF000A04441EA830141EA052104EB800041EAE4
:109F00000641C0F8001770BD70B541EA4201DDE9B5
:109F100004564FF0A04441EA830141EA052104EBD5
:109F2000800041EA0641C0F8001770BD70B541EAF3
:109F30004201DDE904564FF0A04441EA830141EAC1
:109F4000052104EB800041EA0641C0F8001770BD0E
:109F50001CB5002100910B4601220191FFF79EFFE5
:109F60001CBD1CB5002100910B4601220191FFF799
:109F7000A7FF1CBD1CB5002100910B4601220191D9
:109F8000FFF7B0FF1CBD1CB500220B460092114626
:109F90000192FFF795FF1CBD1CB500220B460092F5
:109FA00011460192FFF79EFF1CBD4FF0A04202EB4D
:109FB00080000321C0F8001770471CB500210091F4
:109FC0000B46012201911146FFF77AFF1CBD1CB51B
:109FD000002100910B46012201911146FFF782FFFB
:109FE0001CBD1CB5002100910B46012201911146B8
:109FF000FFF79CFF1CBD4FF0A04202EB8000D0F8A1
:10A00000002722F44032C0F80027D0F8002742EAA7
:10A010000141C0F80017704738B5094B44181B6858
:10A0200000936B4608E000BF53F82010D1F820558C
:10A0300020C2C1F82055401C8442F5D838BD00002C
:10A04000B42503004FF0A04201218140C2F80C1555
:10A0500070474FF0A04201218140C2F80C157047B3
:10A0600042094FF0000100D1491E00F01F000122FB
:10A0700082400A4201D001207047002070474FF013
:10A08000A04201218140C2F8081570474FF0A0425C
:10A0900001218140C2F8081570474FF0A04201210C
:10A0A0008140C2F808157047034908B508440021EB
:10A0B00001600068009008BD0060004002494058FF
:10A0C000012800D000207047006000402DE9F041D9
:10A0D000054620480E460024D0F8103419460AE000
:10A0E000CA681179A14205D1641C0A2CF6DB4FF035
:10A0F000FF342BE011680029F2D1611C26D0E968F9
:10A100000C71D0F8101459B1C968EA680968116077
:10A11000D0F81004C06805600027DFF83C8011E02B
:10A12000C0F81054E96800200860F5E708EBC700A4
:10A13000C279B24200D33246E8683946007900F06D
:10A14000DDFA7F1C00F0D0FAB842EFD82046BDE817
:10A15000F081000000620020002B03007047FDF733
:10A160001FB8704708B5034A00924023024A00F026
:10A1700005F808BDD1C4020068600020F0B595B0B4
:10A180001C4615460F4608461A9E00F0A5FB1821EE
:10A1900009A8FCF764F90E96CDE9095400230822BA
:10A1A00003A9384600F0ADFB05980690BDF81000F5
:10A1B000ADF81C00BDF81200ADF81E0000208DF8AF
:10A1C00021000398082600F00300012802D002288D
:10A1D00018D032E003983346850AC0F3C2008DF8E8
:10A1E000200003980FA9C0F38314A200384600F0A2
:10A1F00088FB09A8009006AB22460FA9284600F06C
:10A20000C7FA1AE00398840DC0F3C2008DF820004D
:10A21000082C01D2254600E0082533462A460FA91E
:10A22000384600F06EFB2E44641B09AB06AA294693
:10A230000FA800F0B1F9002CEAD1384600F052FB2B
:10A2400015B0F0BD7047012003F00EB9084810B5F5
:10A250000178084A515C19B1001D01F07FFB02E052
:10A260000C3001F079FABDE81040002003F0FCB892
:10A27000305B0020DC59002008B5034A00924023DF
:10A28000024AFFF77BFF08BD21C5020020660020BF
:10A290000A4A012902EBC00007D0022907D003298E
:10A2A00007D0042907D000207047022070470420FF
:10A2B000704700797047407970470000002B030019
:10A2C00010B5FFF74CFF04210948FFF7FFFE0848CF
:10A2D0000124C0684471FFF7B6FF0548042110301F
:10A2E000FFF7F4FE02481030C068447110BD000052
:10A2F000E02A03002DE9F04F8DB0FDF785FF18B17E
:10A3000000200DB0BDE8F08F8D4C0020C4F818047B
:10A31000BFF34F8F8B49A06802900D684FF0000982
:10A32000284004EB80000BE0D4F8180470B9616891
:10A330000298814201D8A160E2E7284004EB800046
:10A340000C3002A9FEF7D0FC0028EDD1002003AAB2
:10A35000A046029901EA050308EB8303491CDB6868
:10A3600042F82030401C02910228F2D3039800F0FA
:10A370000300022802D0012850D0C2E003985022E6
:10A38000810D8A46B2EB905F00D850210C4664F3F1
:10A390009F50C0F3C207039008316B4800F053FA96
:10A3A0000600EAD000F098FA4B46082203A930468E
:10A3B00000F0AFFA029909F1080B2940681A8000F1
:10A3C000001D844223D95E4D0C3530B1C2B208EB7A
:10A3D0008101201A91460C3104E02946E2B20025A1
:10A3E00091462846C4B25B46304600F092FA0BEB29
:10A3F00009032DB1224629464FEA060000F089FAEA
:10A4000002990AF1030001EB900002903DE008EB95
:10A4100081015B46224630460C31EFE70398C0F3DA
:10A420008310062800D30620039960F38911C1F335
:10A430008310C1F3C207801C03918100424800F0E1
:10A4400002FA06005DD000F047FA4B46082203A945
:10A45000304600F05EFA09F1080900240FE0029886
:10A460004B4600EA0501401C08EB810102900422E2
:10A4700030460C3100F04DFA09F10409641C0398D0
:10A48000C0F38310A042EAD8D6B3D8F81044D8F865
:10A4900018044546F8B1304600F024FA4AE0E06876
:10A4A0004179012915D10179BDF81000274A52F8E8
:10A4B000200001EB4102072191400840D040052FC8
:10A4C00000D10327B84204D3216820460A683146E8
:10A4D0009047E0680468002CE1D1304600F002FAB1
:10A4E00000208DF800006846FDF7B2FBD5F818048F
:10A4F00008B90298A8609DF80000FDF7CDFB19E0AF
:10A50000FFE7D8F8104405E02168204689688847AD
:10A51000E0680468002CF7D10D484088022809D370
:10A520000C480D49401AC008022101EB00400BA164
:10A5300000F01EF8FDF768FE80F00100E1E6000083
:10A5400000620020D85A0020F02B0300D85B0020C6
:10A55000C85B0020D02B0300002B03004261636B1B
:10A56000656E647320666C75736865640000000036
:10A5700000231A4602F060BA08B5012300926A4629
:10A5800002F05AFA08BD3EB5069C8DE81C00032374
:10A590006A4602F051FA3EBD2DE9F0470E4680466C
:10A5A0001C469246082940D894F80C90002020734D
:10A5B0001946104601F02AFC0025B54206D218F8CB
:10A5C00005201BA12046FFF74DF903E01AA1204604
:10A5D000FFF748F96D1C082DEFD318A12046FFF7AF
:10A5E00041F90025B54212D218F805707E2F08D81F
:10A5F000FBF718FF0068C05D10F03E0F01D03A462F
:10A6000000E02E220EA12046FFF72CF903E00DA159
:10A610002046FFF727F96D1C082DE3D301222146C0
:10A62000504601F0D5FB84F80C90BDE8F08700009F
:10A630002025303278000000202020007C0000001F
:10A6400025630000200000002DE9F0471F494FF06E
:10A6500000081F4881F8008000F042F9002832D13C
:10A660001C4800F05EF91C49DFF87090DFF870A01C
:10A67000A1EB0900C608002414E000273D460CE0C9
:10A68000AC4209D059F8340059F835101422FBF7C0
:10A6900001FF002800DD7F1C6D1CB542F0D32AF8B5
:10A6A0002470641CB442E8D30020414654460D4D4A
:10A6B00006E000BF04EB8002518045F82010401CEA
:10A6C000B042F7D30020BDE8F08700000062002010
:10A6D000F02B0300C8260300F02B0300002B03001F
:10A6E000605B0020D85B002002480349401AC00884
:10A6F00070470000F02B0300002B030070B5114BD6
:10A7000000EB400003EB81040F4B02F0070203EB68
:10A710008101072303FA00F60D688240B5432A43FE
:10A7200000200A604FEA000103FA01F51540CD4010
:10A73000ADB2854200D92846C91C0A29F4D36080ED
:10A7400070BD0000605B0020D85B002013B5684638
:10A75000FEF76EFE08B100201CBD0248009950F8BB
:10A7600031001CBD002B030070B508480125D0F84E
:10A770001044057007E0E06845712168204649688B
:10A780008847E0680468002CF5D170BD00620020A5
:10A790002DE9FF4781460C9D00200C462F7B287336
:10A7A000984616462946184601F030FB072E42D23D
:10A7B000DFE806F004090F161F2A3600494628462E
:10A7C000FFF750F837E0494628462268FFF74AF875
:10A7D00031E0D4E9002349462846FFF743F82AE050
:10A7E000A0680090D4E9002349462846FFF73AF8CC
:10A7F00021E0D4E90201CDE90001D4E90023494672
:10A800002846FFF72FF816E004F1080007C88DE886
:10A810000700D4E9002349462846FFF723F80AE059
:10A8200004F108000FC88DE80F00D4E90023494661
:10A830002846FFF717F800222946404601F0C8FADB
:10A840002F73BDE8FF872DE9F041058B80462D1F52
:10A850004819C01CB0FBF5F0C6B24046FEF774FEC6
:10A86000041E19D00020207101206071E5800027AE
:10A870002546761EC4F800800BE04046FEF764FED5
:10A8800060B16179491C6171286005467F1CC0F880
:10A890000080B742F1D32046BDE8F081204600F0A9
:10A8A00002F80020F8E72DE9F041457901466B1EDA
:10A8B000002201E00968521C9A42FBD30F6801464E
:10A8C000002605E038460C68FEF760FE2146761C3F
:10A8D000AE42F7D3BDE8F0810121001DFEF712BEA4
:10A8E000FEF76CBE10B504460121001DFEF726FEE2
:10A8F00010F0FF0F04D12046BDE81040FFF7D3BF92
:10A9000010BD1CB501920122009201AAFEF750FD74
:10A910001CBD1CB501920022009201AAFEF748FD61
:10A920001CBD82680021916082681161826851615A
:10A930008268D16082685160806801607047000061
:10A9400030B51548ADF5017D0078002821D04FF4D1
:10A95000FA7500BFADF8005280A9684661DF38B1D2
:10A96000052816D00DF5017DBDE83040FCF732BF5B
:10A970006C460A497DA800F0BBF806E0D0E900214A
:10A98000204690477DA800F0CAF87F980028E1D0C3
:10A99000F4E70DF5017D30BD475B002088270300FB
:10A9A000F8B5134C2078C0B10120A07001F05AFD19
:10A9B000112814D0022001F06DFD00258DF8005003
:10A9C0006846FDF745F911DF064625709DF8000041
:10A9D000FDF762F92EB13046F8BD0820F8BD002021
:10A9E000F8BDA57001F0C8FD032001F053FDF6E7A6
:10A9F000445B00207CB5194C207808B108207CBD50
:10AA00000120A070002001F02DFD112819D0002098
:10AA100001F040FD12480026006801908DF80060AA
:10AA20006846FDF715F90F4901A810DF05000AD0A7
:10AA3000002020709DF80000FDF72EF92DB128466A
:10AA40007CBD00207CBD0120F3E7A670667001F09C
:10AA5000B3FD012001F01EFDF3E70000445B002080
:10AA60001C270300417702000EB50749684600F035
:10AA70003FF805E0D0E900108847684600F04FF83D
:10AA800002980028F6D10EBD38270300014800784F
:10AA900070470000445B00200548817819B10078B8
:10AAA00018B1FFF77DBF08207047FFF7A3BF000074
:10AAB000445B00201FB568464BDF30B1052814D039
:10AAC00004B0BDE81040FCF785BE084901A800F0BD
:10AAD0000FF806E0D0E900210098904701A800F0A7
:10AAE0001EF803980028E6D0F4E71FBDA427030052
:10AAF000016009684160AFF3008010B5D0E9002122
:10AB00005368994201D1002104E0D1E90034A34205
:10AB100002D01946816010BD08314160F0E78168BC
:10AB200000290BD0026892680A44826041684B6831
:10AB30009A4203D108314160FFF7DFBF70474058A8
:10AB4000002800D00120704708B50022425040582C
:10AB5000009008BD4058002800D00120704708B57B
:10AB6000002242504058009008BD4058002800D0B4
:10AB70000120704708B5002242504058009008BD9F
:10AB8000D0F80403084000D0012070474058002846
:10AB900000D00120704708B5002242504058009074
:10ABA00008BD000002480068002800D0012070475E
:10ABB0000004014008480068012110F0010F06D18F
:10ABC0004FF0E020C02280F800248430C1670349A0
:10ABD000012008607047000000E100E01805004017
:10ABE0000649024600200B790BB1852070470A60A8
:10ABF00001220A7100224A7170470000E8590020C2
:10AC0000022010B54107C1F808034FF48270FEF727
:10AC1000FCFC05490120086004480168C1F30041BB
:10AC20000029FAD110BD00000C00004018040040BB
:10AC3000002802D00149800108477047E125030040
:10AC400010B500F005F80149084410BD006000404F
:10AC500010B5FDF717FB602101EB8000C0B210BDFD
:10AC600070B5194D95F8580008B1082070BD002442
:10AC7000661E2046FFF7F4F910B1281980F83060FD
:10AC8000641CE4B2202CF4D300242046FDF7C8FA5B
:10AC9000641CE4B20C2CF8D300200D4968650B4C01
:10ACA000C02081F8000401264020891FC1F800015E
:10ACB0004FF4BE70FFF7F8F9A004C4F8040385F858
:10ACC0005860002070BD0000605D00200060004002
:10ACD00006E000E0034890F85800002800D001206A
:10ACE00070470000605D00202DE9FC4104462A48C1
:10ACF0000F462044002590F93010491C01D008254A
:10AD000044E0B978002651B3012200212046FDF726
:10AD100095FA411C21D0830020483A78184479786C
:10AD2000D0F81035DFF878C003EA0C03C0F810350E
:10AD3000D0F810354FF4F85C0CEA042C43EA0C030D
:10AD40004FF4403C0CEA02424FF4801C0CEA0151E3
:10AD50000A431343C0F8103504E0042516E0FE2131
:10AD600080F830107A780120A0404FF0A041012AED
:10AD70000FD0C1F80C050122204600960023114691
:10AD80000196FFF78BF8204600F0A6FF2846BDE8A5
:10AD9000FC81C1F80805EEE7605D0020006000401E
:10ADA000FFE0ECFF0649084490F9300081000548B7
:10ADB0000844D0F8101541F00301C0F81015704791
:10ADC000605D00200060004001B10121064A10448E
:10ADD00090F93000820005481044D0F8102561F346
:10ADE0001452C0F810257047605D002000600040DC
:10ADF00010B5044600F07EFF70B12046FDF742FA20
:10AE0000C0B2FDF70DFA2046FDF73CFA0C4A0021CE
:10AE100002EB8000C0F810150A49FF20214481F898
:10AE20003000204600F040FF002807D02046FFF702
:10AE30008FF82046BDE8104000F040BF10BD000074
:10AE400000600040605D002010B500F005F8014989
:10AE5000084410BD0060004010B5FDF713FA302122
:10AE600001EB8000C0B210BD0121B1EB507F01D1D8
:10AE700001207047002070470121B1EB507F01D1C4
:10AE800001207047002070472DE9F84F0427174E26
:10AE900000248246A1464FF0010800BF8DF80090C3
:10AEA0006846FCF7D5FE08FA04F5354203D0204683
:10AEB000FDF758FF60B19DF80000FCF7EDFE27B1EB
:10AEC00004F10104AE43E4B2E8D13846BDE8F88F9E
:10AED000074908FA04F000274A68104348608AF8D6
:10AEE00000409DF80000FCF7D7FEEEE7FFFF0100F1
:10AEF0000C5A00202DE9F04114460D00074612D0EF
:10AF00008CB10026FDF761FF78B13846FDF72AFFC6
:10AF100068B1084800EBC700C0F81055C0F81445E8
:10AF20003046BDE8F0810E20FBE70726F8E708264B
:10AF3000F6E7000000F0014070B505460024FDF77B
:10AF40001DFF68B12846FDF740FF18B12846FDF700
:10AF500009FF38B104490120A8400860204670BDAF
:10AF60000724FBE70824F9E708F5014070B505461A
:10AF70000024FDF703FF68B12846FDF726FF18B14E
:10AF80002846FDF7EFFE38B104490120A8400860CB
:10AF9000204670BD0724FBE70824F9E704F50140CB
:10AFA000F8B504460026FDF710FF98B10A480125C0
:10AFB000A540056000208DF800006846FCF748FEBB
:10AFC00006484168A94341609DF80000FCF764FE13
:10AFD0003046F8BD0726FBE708F501400C5A002073
:10AFE00038B50D4600F05EFF040014D000208DF847
:10AFF00000006846FCF72CFE207928B19DF800007F
:10B00000FCF74AFE112038BD0120256020719DF813
:10B010000000FCF741FE002038BD10B500F042FFF3
:10B02000002802D000210160017110BD2DE9FC470C
:10B030000C46154601798046554A01EBC10002EBEA
:10B0400080069946307F10B10820BDE8FC87514A40
:10B05000D8F80000074652F82110FFF7C1FF08B1E9
:10B060001120F2E7C6E90059207B0128207802D898
:10B07000FEF7EFFF01E0FFF710F84FF0000ACDF800
:10B0800000A0CDF804A02078534652460121FEF7D7
:10B090004DFF60784FF0FF35FF2806D08146FEF760
:10B0A000D8FF4846FEF79DFF00E0A946A078FF289C
:10B0B00009D0002205460123CDF800A01146CDF8A5
:10B0C00004A0FEF733FFA07886F82000E078F07740
:10B0D000E078FF280BD0217911B1FEF7BAFF01E02B
:10B0E000FEF7DBFFE078FEF77CFF2079B077217870
:10B0F000C7F80815C7F80C95C7F81055A068C7F829
:10B100002405217B607B00B10120012904D00229A4
:10B1100005D0032908D105E040F0020004E040F02A
:10B12000040001E040F00600C7F85405A079C7F814
:10B13000C0050720C7F800053068012218B3D8F809
:10B140000000617940F3073000284FEA411104DB29
:10B1500000F1E02080F8001405E000F00F0000F19D
:10B16000E02080F8141DD8F8000040F307300028D4
:10B1700009DB00F01F0102FA01F14009800000F133
:10B18000E020C0F80011504686F81DA032775CE739
:10B19000605E0020F82503002DE9F04105460F46CA
:10B1A0000079154900EBC00001EB80041646607F72
:10B1B00010B11120BDE8F081206820B116F0140F05
:10B1C00001D10120607797E80F0004F10C0888E8AE
:10B1D0000F00E07FFF2806D0A17F11B1FEF75DFFD1
:10B1E00001E0FEF736FF33463A4621462868BDE8BF
:10B1F000F04101F057BA0000605E002010B5402217
:10B2000002EB81020368D2B201249C5000684FF423
:10B21000A86202EB8101405810BD00680121C160A5
:10B2200070472DE9F04106460D464FF48034006822
:10B230001746AC404BB14FF4A07101EB8501FFF70D
:10B2400083FC3068C0F8044301E0C0F8084330686C
:10B2500000EB8500C0F84075BDE8F08102684FF44E
:10B26000A07000EB810080B21044704702684FF478
:10B2700080308840C2F80803704770B505460C4618
:10B280004FF4A07000EB840081B22868FFF75CFCEB
:10B2900029684FF48030A040C1F8040370BD00005D
:10B2A0000268012111610079034A00EB400002EBC2
:10B2B0008000017270470000845E00200168012256
:10B2C0000A600079034A00EB400002EB8000022193
:10B2D00001727047845E0020F0B40468049E40F25E
:10B2E0000115D4F800728D40AF43C4F800720468B1
:10B2F000D4F800521D43C4F800523346F0BCFFF7A7
:10B3000090BF00002DE9F04104460E4600792C491B
:10B3100000EB400001EB8007387A10B10820BDE84F
:10B32000F0813A60706800254FF4A078786006E0FC
:10B3300008EB85012068FFF707FC6D1CEDB2607912
:10B34000A842F5D82068F17840F3073000284FEA8A
:10B35000411104DB00F1E02080F8001405E000F06A
:10B360000F0000F1E02080F8141D2068012140F357
:10B370000730002809DB00F01F0201FA02F2400941
:10B38000800000F1E020C0F8002120687278D0F839
:10B39000043562F30103C0F804352068B278D0F8B0
:10B3A000083562F30103C0F8083520683278D0F818
:10B3B000103562F30303C0F8103539720020AEE790
:10B3C000845E002010B50346006840F30731002971
:10B3D0000DDB01F01F02012090404909890001F1B5
:10B3E000E021C1F88001BFF34F8FBFF36F8F196861
:10B3F0004FF0FF30D1F800220024C1F80042196854
:10B40000C1F808031846FFF74BFF1879034900EB12
:10B41000400001EB8000047210BD0000845E00203B
:10B420000179064AC1EB0111006802EB8101052296
:10B43000C0F80025022081F82E0070470C5E002025
:10B440002DE9FC410646174600790D46334AC0EB0C
:10B45000001102EB8104984694F82E1011B10820D7
:10B46000BDE8FC812E4951F820103068FFF7B8FD87
:10B4700008B11120F4E7C4E900780027A76084F838
:10B480002D7084F8317084F83070687B84F838004F
:10B490004FF00608CDE9008703233A46394628686D
:10B4A000FEF732FDCDE900870022032311466868CC
:10B4B000FEF72AFDD5E900123068C0F80815C0F87B
:10B4C0000C25A968C0F824152068012208B330684B
:10B4D00040F30731287B00294FEA401004DB01F1DB
:10B4E000E02181F8000405E001F00F0101F1E02105
:10B4F00081F8140D306840F30730002809DB00F0B4
:10B500001F0102FA01F14009800000F1E020C0F8BB
:10B51000001184F82E200020A2E700000C5E00201D
:10B52000C0250300F0B585B015460E4607461C46FB
:10B53000142207496846FAF779FF8DF80160002266
:10B54000694638460395019400F020F805B0F0BD37
:10B55000C42503002DE9F04186B00E4680461C4606
:10B560001546142168460C9FFAF779FF8DF80160A3
:10B57000039501940FB1202200E000226946404665
:10B5800000F004F806B0BDE8F081000030B40379A3
:10B59000054CC3EB031304EB830413460A4600680F
:10B5A000214630BC01F0C6BE0C5E002001490248B5
:10B5B00001F082BFBC5D0020002000402DE9F04179
:10B5C0000546007916460F4600EB40012D4A01EB77
:10B5D000C00102EB810494F82A1011B10820BDE8E3
:10B5E000F081294951F820102868FFF7F9FC08B1CB
:10B5F0001120F4E739462846FCF768FB6660386995
:10B60000206030004FF001062FD03F7F4FF48E7145
:10B610002868FFF7AFFA4FF4A2712868FFF7AAFA7B
:10B6200028681A49C0F8041328684FEA471140F304
:10B630000730002804DB00F1E02080F8001405E06A
:10B6400000F00F0000F1E02080F8141D286840F39E
:10B650000730002809DB00F01F0106FA01F140095C
:10B66000800000F1E020C0F8001128680421C0F833
:10B6700000150020A061E06184F8290044F8140F4F
:10B68000A675ACE7BC5D0020B82503008000020071
:10B690002DE9F05F054600790B4600EB400101EB18
:10B6A000C000244901EB8004284600F045F810B1A1
:10B6B0001120BDE8F09F62614FF00009C4F82090AE
:10B6C000A36084F828904FF48E784E46414628684F
:10B6D000FFF750FA28684FF0010AC0F808A0214689
:10B6E000286801F079FE606808BBD5F800B067698A
:10B6F0000FE000BF94F8280008B10F2615E041467E
:10B700005846FFF732FA0028F4D02146584601F097
:10B7100063FE206AB842F2D3574641462868FFF7D5
:10B7200024FA0028F9D02868C760C4F8149030467D
:10B73000BFE70000BC5D0020007900EB400101EB99
:10B74000C000044901EB80004069002800D00120BE
:10B7500070470000BC5D00202DE9F04704460079E9
:10B760004FF0000900EB400101EBC000284901EB5C
:10B7700080072068C0F800957868B0B12068254936
:10B78000C0F80813206840F3073000280DDB00F0F4
:10B790001F02012191404009800000F1E020C0F823
:10B7A0008011BFF34F8FBFF36F8F2068D0F80C2547
:10B7B000D0F81485D0F80865D0F810554FF0FF3157
:10B7C000C0F81415C0F80C152068C0F80815C0F8AA
:10B7D0001015501C02D01046FEF7C3FBB8F1FF3F16
:10B7E00002D04046FEF7BDFB681C02D02846FEF79B
:10B7F000B8FB701C02D03046FEF7B3FB2068FFF7A1
:10B800000CFC87F82A90C7F80490BDE8F087000088
:10B81000BC5D0020840202000149024801F0FABE2A
:10B82000E85D0020002000402DE9F0410546164665
:10B8300000790F46154A00EBC00102EB810494F831
:10B84000201011B10820BDE8F081114951F82010F5
:10B850002868FFF7C5FB08B11120F4E739462846F0
:10B86000FCF778FA6660386920601EB1397F284697
:10B87000FDF7F6F928680821C0F800150020A0613E
:10B88000E0616061012184F82010DCE7E85D0020C0
:10B89000BC2503002DE9F04704460E4600792749F0
:10B8A00000EBC00001EB800517463046FFF7DCFADD
:10B8B00030B1204600F044F820B11120BDE8F087F7
:10B8C0001020FBE76F61AE604FF490774FF00008F7
:10B8D00039462068FFF75FF94FF4AC7631462068AF
:10B8E000FFF759F92068AA686969C0F84425C0F8CB
:10B8F000481520684FF00109C0F808906868D0B971
:10B90000BA4651462068FFF741F90746314620689C
:10B91000FFF73CF90743F4D010B14FF00F0808E0EF
:10B920002068C0F80C9031462068FFF72FF90028F6
:10B93000F9D0002068614046C0E70000E85D0020C3
:10B940000079054900EBC00001EB80004069002848
:10B9500000D0012070470000E85D00202DE9F0478D
:10B96000064600793D4900EBC00001EB80053468D4
:10B9700068680127A8B13A49C4F80813306840F351
:10B98000073000280DDB00F01F0107FA01F1400924
:10B99000800000F1E020C0F88011BFF34F8FBFF3AB
:10B9A0006F8FD4F8000220F02000C4F80002A869CC
:10B9B0004FF4A27820B141462046FFF7ECF86760CB
:10B9C0004FF4AC7949462046FFF7E5F8E760474673
:10B9D00049462046FFF7DAF80028F9D0A86928B1CF
:10B9E00039462046FFF7D2F80028F1D04FF0000A80
:10B9F000C4F800A53068D0F80C25D0F81495D0F81C
:10BA00000885D0F810754FF0FF31C0F80C15C0F85C
:10BA100014153068C0F80815C0F81015501C02D075
:10BA20001046FEF7A7FAB9F1FF3F02D04846FEF7ED
:10BA3000A1FA781C02D03846FEF79CFAB8F1FF3F15
:10BA400002D04046FEF796FA2046FFF7E6FA85F860
:10BA500020A0C5F804A0BDE8F0870000E85D002044
:10BA60001003420003490860034801680029FCD024
:10BA70007047000004E5014000E401408A7D022A8D
:10BA800004D90289CB881A44D21C02814289C98810
:10BA9000511AC91E4181704708B500210091014625
:10BAA0000823024A0248FEF7F9F808BDAC26030055
:10BAB0004C5B002008B50020009004480823044A8D
:10BAC00001680448FEF7EAF808BD0000BC5A0020EF
:10BAD000A42603004C5B0020F0B50E462DED028B32
