:020000040002F8
:10600000A8870020C1630200C9630200CB630200BD
:10601000CD630200CF630200D163020000000000E4
:10602000000000000000000000000000D363020038
:10603000D563020000000000D7630200D9630200AC
:1060400095650200DB630200496902005D6602009B
:10605000DB630200DB630200F1640200DB63020029
:10606000DB630200DB630200DB630200DB63020030
:10607000DB630200DB630200DB630200DB63020020
:10608000DB630200ED650200DB630200DB630200FC
:10609000DB630200DB6302006D660200DB6302006B
:1060A000DB630200DB630200DB630200DB630200F0
:1060B000DB630200DB630200000000000000000060
:1060C000DB630200DB630200DB630200DB630200D0
:1060D000DB630200DB630200DB6302000000000000
:1060E00000000000000000000000000000000000B0
:1060F00000000000000000000000000000000000A0
:10610000000000000000000000000000000000008F
:10611000000000000000000000000000000000007F
:10612000000000000000000000000000000000006F
:10613000000000000000000000000000000000005F
:10614000000000000000000000000000000000004F
:10615000000000000000000000000000000000003F
:10616000000000000000000000000000000000002F
:10617000000000000000000000000000000000001F
:10618000000000000000000000000000000000000F
:1061900000000000000000000000000000000000FF
:1061A00000000000000000000000000000000000EF
:1061B00000000000000000000000000000000000DF
:1061C00000000000000000000000000000000000CF
:1061D00000000000000000000000000000000000BF
:1061E00000000000000000000000000000000000AF
:1061F000000000000000000000000000000000009F
:10620000DFF80CD000F036F900480047E9790200C9
:10621000A887002030B450E8012F93B2C4892344EA
:106220008489A34228BF1B1B0489A34202BFBFF37A
:106230002F8F002007E0C3EA020340E80134002C5E
:10624000E9D14FF001000A6030BC704750E8012FDF
:10625000C2EA024240E801210029F7D1704730B478
:1062600050E8022F1FFAA2F3C488A34202BFBFF373
:106270002F8F00200DE0C48923448489A34228BFC6
:106280001B1BC2EA034340E80234002CE8D14FF064
:1062900001000A6030BC704750E8022FC2EA224277
:1062A00040E802210029F7D17047034653E8022F46
:1062B000D988B2EB324F4FF0000017BF92B241EADB
:1062C000014142EA014104E05A68B2EB324F08BF93
:1062D000012043E80212002AE8D1704730B4044696
:1062E00054E8000F0D4644E80053002BF8D1156028
:1062F00030BC704730B4044654E8000F40EA010552
:1063000044E80053002BF7D1156030BC704730B41F
:10631000044654E8000F00EA010544E80053002B4E
:10632000F7D1156030BC704730B4044654E8000F14
:1063300080EA010544E80053002BF7D1156030BC1A
:10634000704730B4044654E8000F00EB010544E800
:106350000053002BF7D1156030BC704730B40446B1
:1063600054E8000FA0EB010544E80053002BF7D1DF
:10637000156030BC704770B404464FF0000054E81C
:10638000006F0D68AE4207BF44E80023012044E8D7
:1063900000630E60002B1CBF0020F0E770BC70474C
:1063A00030B4044654E8000F88422CBF451A054615
:1063B00044E80053002BF5D1156030BC7047000055
:1063C0000648804706480047FEE7FEE7FEE7FEE78F
:1063D000FEE7FEE7FEE7FEE7FEE7FEE77166020086
:1063E000016202000048704774B1020040EA0103F4
:1063F0009B0703D009E008C9121F08C0042AFAD27B
:1064000003E011F8013B00F8013B521EF9D270473E
:10641000D2B201E000F8012B491EFBD270470022E6
:10642000F6E710B513460A4604461946FFF7F0FF93
:10643000204610BD421C10F8011B0029FBD1801A18
:106440007047034611F8012B00F8012B002AF9D1FF
:106450001846704730B505460020034600E05B1C37
:10646000934205D2EC5CC85C201A01D1002CF6D115
:1064700030BD0000064C074D06E0E06840F0010327
:1064800094E8070098471034AC42F6D3FFF7BCFEFF
:10649000D0B30200F0B3020070B58C1810F8015BA5
:1064A00015F0070301D110F8013B2A1106D110F8AD
:1064B000012B03E010F8016B01F8016B5B1EF9D1B1
:1064C0002B0705D40023521E0DD401F8013BFAE737
:1064D00010F8013BCB1A921C03E013F8015B01F8A2
:1064E000015B521EF9D5A142D8D3002070BD000037
:1064F0002DE9F8430025DFF894804FF480760124DD
:106500002F460095304602F0B3F838B1D8F80403AE
:10651000204203D0304602F0A1F82543361D640026
:106520007F1CB6B2082FEDD34FF4BE74204602F0A4
:106530009FF848B1204602F091F845F000456A46C0
:106540000121002002F06CF815F0FF0F16D0012693
:1065500000242E420ED008EB8401D1F81005D1F8AA
:106560001015C0F304200A4AC1F3014152F8242057
:1065700002B190477600641C082CEAD3002D02DAA1
:10658000684603F0BFF9BDE8F883000000600040F2
:10659000B05C002070B54FF48076304601F0E8FB27
:1065A000114CB50560B1304601F0E9FB0120C5F89A
:1065B0000803607920B901206071216800208847B4
:1065C0004FF48276304601F0D3FB00280AD03046E3
:1065D00001F0D5FB0220C5F808032168BDE8704032
:1065E0000120084770BD0000905900200249024870
:1065F000091F096800680847EC59002000F0AAB993
:1066000070B50E46144900EB400001EBC00514467E
:10661000E86A183520B101280FD0022805D113E00F
:10662000284600F0CBF9A04201D2002411E0224616
:106630003146284600F0FAF90BE0284600F0BEF992
:10664000A042F4D20446F2E73146284600F0C1F9F0
:106650000446204670BD00001C6500200149024828
:1066600003F004BF5C5D00200030004002F0E0BC9D
:10667000F0B5A449A4484FF080540B68D4F83021F9
:106680000078D4F83411551CC0F3031006D094469A
:1066900001270026BCF1060F03D00AE003F0FF0C2F
:1066A000F6E7B4F82453DFF864C2C5F30425CCF848
:1066B0000050DDB2062D06D1032804D1DFF854C204
:1066C000934DCCF87450551C04D09446BCF1060F81
:1066D00003D00AE003F0FF0CF8E7D4F84452DFF8E7
:1066E00038C2C5F34235CCF80050DDB2062D08D1D2
:1066F000032806D1894DD5F800C02CF0807CC5F860
:1067000000C0551C04D09446BCF1060F03D00BE02A
:1067100003F0FF0CF8E74FF08045C5F80C61C5F8B1
:1067200010617D4D2D1F2E60DDB2062D08D103288E
:1067300006D1DFF8E4C103250CF1640CCCF800505D
:10674000DDB2062D10D103280ED1DFF8D4C1052506
:10675000CCF80050724D78352F60714D08352E60A1
:106760000CF104063F253560551C04D016460D4635
:10677000062E03D05BE0DEB20546F9E7ED1E012DE3
:1067800055D9684D2D68684E3560664D2D1D2D68B4
:10679000361D3560634D08352D68361D3560614DF9
:1067A0000C352D68361D35605E4D10352D68361D53
:1067B00035605C4D14352D68361D3560594D1835E2
:1067C0002D68594E20363560564D1C352D68361DC6
:1067D0003560544D20352D68361D3560514D2435BA
:1067E0002D68361D35604F4D28352D68361D3560B6
:1067F0004C4D2C352D68361D35604A4D30352D6891
:10680000494E40363560474D34352D68361D35606C
:10681000444D38352D68361D3560424D3C352D6868
:10682000361D35603F4D40352D68361D3560551C91
:1068300003D01646062E02D007E0DEB2FAE7D4F8FF
:1068400058523A4E05F04F053560551C03D013469B
:10685000062B02D008E0DBB2FAE735480368DB0715
:1068600002D06FF001030360062A07D1C91E022976
:1068700004D93048016841F48061016027487438C8
:10688000016841F470010160BFF34F8FBFF36F8F58
:10689000D4E94C104FF01022062907D1C01E03285E
:1068A00004D9D2F808021C491C310860D2F8000251
:1068B000002803DBD2F8040200281FDA012002F0CE
:1068C000E7FF1521C2F800121B480368002BFCD01B
:1068D000C2F8041201680029FCD0002002F0D8FFA1
:1068E000BFF34F8F0D48F0380168144A01F4E0619E
:1068F00011430160BFF34F8F00BFFDE711491048FE
:106900000860F0BDE00F00F0E80F00F040350140F6
:106910000DF0ADBA00C007403C050040FCED00E0C2
:10692000105600400404001020C50040E40E004052
:10693000000400403C17004000E401400400FA0558
:106940000090D003D85A002001480068004700009A
:106950009859002010B5124C02202061606111A0EE
:10696000A06104F17800E0614FF400702062002023
:10697000A06260620BA1A164E06204F51E71E16493
:106980001021A065C4E91410E06509A1E01DFFF71E
:1069900058FD08A12046FFF754FD2020A07110BD2E
:1069A0001C6500205465726D696E616C000000000A
:1069B0005254540053454747455200000269C1688C
:1069C0008A4203D88068401A104400E0501A401EE2
:1069D00070472DE9F047C4681746894606464FF0D0
:1069E00000083069A04201D9051B02E0B168201AF5
:1069F0000D1AB0686D1E001BA84200D80546BD42A6
:106A000000D33D4670682A4620444946FFF7EEFC15
:106A1000B0687F1B2C44A844A944A04200D10024A4
:106A2000F460002FDDD14046BDE8F0872DE9F0414C
:106A300004468846D4E90207C51BE168606816462B
:106A40000844B54206D94146FFF7D0FCB819E060CA
:106A5000BDE8F0812A464146FFF7C8FC761B08EBEB
:106A6000050132466068FFF7C1FCE660F0E702E02E
:106A700008C8121F08C1002AFAD1704770470020C9
:106A800001E001C1121F002AFBD17047012120281B
:106A900003DA81400548014003E0402802DA20384B
:106AA000814009B10120704700207047FC06FFBDFE
:106AB000800701D00020704701207047C3688B42D7
:106AC00006D811440069491E814201D8012070474F
:106AD0000020704710B501220221002000F0C4FA06
:106AE00008B1072810D107220221012000F0BCFACA
:106AF00008B1072808D100210A22084600F0B4FA9C
:106B000008B1072800D1002010BD000072B602F0C5
:106B10000FF900BF01F0C8FE0028FBD1144D154944
:106B200015486A88081AC4082AB1012000EB0440FD
:106B300012A101F0F7FF14480068C00700D000BEA2
:106B40006888022805D3022000EB04400FA101F061
:106B5000E9FFBFF34F8F0C48E43801680F4A01F496
:106B6000E06111430160BFF34F8F00BFFDE70000FC
:106B7000485B0020C0B4020010B40200466174619A
:106B80006C206572726F7200F0ED00E053797374DF
:106B9000656D207265736574000000000400FA05DD
:106BA0000EB500210091CDE901106A4644F20100C2
:106BB000FFF7ACFF0EBDF8B50446002617460D469C
:106BC0008DF80060684600F043F8D4E90201C04344
:106BD00070EA010005D09DF8000000F05DF800208B
:106BE000F8BD00F02DFD40197141C4E902019DF886
:106BF000000000F051F8A761206900B1256121462D
:106C0000BDE8F840002003F063BA38B50446002020
:106C10008DF80000684600F01BF8D4E90201C0437B
:106C200070EA01000DD04FF0FF30C4E902009DF87A
:106C3000000000F031F82146BDE83840012003F0A3
:106C400047BA9DF8000000F027F8002038BD00008A
:106C500030B5EFF3108172B60D4A9468012324B168
:106C60000370002900D162B630BD93604FF0E0237D
:106C7000D3F88051074C25401560C3F88041D3F804
:106C8000844154605A17C3F8842100220270E8E757
:106C9000985D0020FC06FFBD0B498A68002A11D0D0
:106CA00000280FD1EFF3108072B60B684FF0E0228E
:106CB000C2F800314B68C2F8043100228A60002813
:106CC00000D162B670470000985D00202DE9F041C8
:106CD000064608680C46411C4FF0A0474FF00105DE
:106CE00006D005FA00F1C7F80815206801F072FC1B
:106CF0006068411C02D0002101F05AFC3168A06993
:106D0000C1F82405607D227D31681043C1F86C050F
:106D1000D4E900123068C0F81425C0F80C15207DA5
:106D2000012815D1A068411C02D0002101F040FCCF
:106D3000E068411C05D08540C7F80855E06801F0BF
:106D400049FCD4E902123068C0F80825C0F81015D3
:106D5000BDE8F0812DE9F041064608680C46411C6B
:106D60004FF0A0474FF0010506D005FA00F1C7F833
:106D70000815206801F038FC6068411C02D0002131
:106D800001F01FFC3168A069C1F82405607D217DF8
:106D900032680843C2F86C05D4E900123068C0F8C4
:106DA0000C15C0F81425207D012815D1A068411CC0
:106DB00002D0002101F005FCE068411C05D08540AF
:106DC000C7F80855E06801F00FFCD4E902123068FA
:106DD000C0F80825C0F81015BDE8F08110B51A4CB0
:106DE0000188606810290ED011292BD1401E6060E7
:106DF00028D1FFF76FFE002824D02168002921D078
:106E0000BDE810400847D0B900210122084600F033
:106E10002BF908B107280FD107220221012000F029
:106E200023F908B1072807D104220221002000F02D
:106E30001BF920B1072802D0216801B1884760689A
:106E4000401C606010BD0000745900202DE9F0471F
:106E500001883B4E40F2F3194FF6FF7510291BD005
:106E600011293ED0122954D0502946D1C188F28927
:106E7000841D914241D1618902293ED186883046E4
:106E800000F07AFC050038D004F10C0000F0E8F8BE
:106E9000A8B3294630464EE0C17B878804460129C5
:106EA0002BD1A846284600F067FC050017D02F809C
:106EB00000202872234843464A460168C5F80A1054
:106EC0004068C5F80E0004F1100105F10A0000F059
:106ED0000FFD6872F08900280FD129462AE00420AE
:106EE00013E0808800F048FC040006D06068FFF7DB
:106EF0008CFE08B102F0F8FF2580BDE8F087FFE7BF
:106F00006868FFF782FE0028F7D0BDE8F04702F07E
:106F1000EBBF87880646384600F02EFC0400ECD014
:106F20002B464A4606F1080104F10A0000F0E0FC95
:106F3000607221463846BDE8F04700F07BB900009A
:106F4000045C00207C5900202DE9F04F044686881F
:106F50000188424897B0834610290CD0112950D09F
:106F6000103019296AD01A2974D1217A0C09042CFD
:106F70004DD301224CE0394D083DA868C0430B9029
:106F800069680BA800F07EFE0B990CA800F032F99E
:106F90002C220CA96846FFF729FA0027E946A846E3
:106FA00010E000BF09EB47005FF00005B0F804A057
:106FB00008EB85005146001D00F038FE6D1C1E2DAB
:106FC000F6D37F1C0098B842ECD8142E05D317B026
:106FD0000420BDE8F04FFFF7E3BD3146584600F00E
:106FE0003BFE314608F1040000F036FEE07B02284B
:106FF00030D117B03146BDE8F04F1848001D00F001
:107000002BBE17B03146BDE8F04F00F00FBE002296
:10701000314600F00BFA032C01D3012200E00022DC
:107020000E4831460C3000F001FA022C01D3012247
:1070300000E0002209483146083006E0217A0029A4
:1070400008D1617AC1F3C002314617B0BDE8F04FF4
:1070500000F0ECB917B0BDE8F08F0000285C00200C
:10706000007800F00100704770B50023042810D2AA
:107070000D4D00EB4004012A02D101290CD0002261
:10708000094E00EB4000304461B1012906D00229CD
:1070900006D00723184670BD0E30C2B22A55F9E754
:1070A0004270F7E78270F5E7C05B00202DE9F84FEA
:1070B0000546861C00208DF8000091460F464FF0D3
:1070C000010A6846FFF7C4FD1B4C04F21C486068C7
:1070D0003860D4E90101194F401A3968081A0EE0E6
:1070E0000121404600F0C8FD00F02CFC014640465E
:1070F00000F0C2FDD4E90101401A3968081A401CA9
:107100008642EDD8B9F1000F03D0052065F3891050
:1071100002E0062065F39F5061683A68114004EB75
:107120008101C8606068304460609DF80000FFF72E
:10713000B3FD5046BDE8F88FBC600020685A0020BF
:1071400070B50D4604460A2902D10D21FFF7F8FF5C
:10715000A0682268411CA1601554D4E90101814254
:1071600004D32046BDE8704000F0CBBE70BD0000E7
:10717000044881684068814201D1012070470020A5
:1071800070470000BC6000200249084490F93000BC
:1071900070470000B05C002070B5084C050009D0B5
:1071A00010342168002907D0086820604968284603
:1071B0008847F6E70834F4E770BD00009C5C0020C7
:1071C000054A012120B1012805D19170FFF7E4BFE4
:1071D00051700020FAE770479C5C002010B5D0E9A0
:1071E0000234D1E90220D11AA04101D3012010BDFF
:1071F000002010BD73B58CB00646002000900D989D
:1072000080B100246D4621460DA800F01AFD30B172
:10721000009805EB400084800098401C0090641C9E
:10722000142CF0D32C2269463046FFF7DFF80EB05D
:1072300070BD000038B54A7A0F4B62B100220A7265
:107240005969002906D001228DF80020ADF802000E
:107250006846884738BD0A7A62B19B684C68024626
:1072600019462046FFF7A7FC0028F3D0BDE83840B8
:1072700002F03ABE5B68F1E7045C00202DE9FF41B3
:107280000C4620B14FF4064004B0BDE8F0812079EF
:10729000002748F2096538B141F61D5601281BD078
:1072A000022826D0681DEFE702202071029703977D
:1072B000E0680190694601A802F0F0FC50B1029824
:1072C0008188E18000882081BDF80010029802F0DA
:1072D00063FDD9E72846D7E70A4B6A460021A01D7F
:1072E00002F094FC38B1074918398F61CF61A84288
:1072F000CAD13046C8E703488188019802F04CFDA6
:10730000F5E700003C5A002010B50021024800F0CB
:10731000C4FC80F3100010BDD86400200068D0F8D1
:107320000405704790F90400002809DB00F01F02F3
:10733000012191404009800000F1E020C0F80012D6
:10734000704710B503780022072B06D2DFE803F060
:1073500005040610202930000A7010BD01230B70AF
:1073600003898B818388CB81C06888600A7410BDD3
:1073700002220A7002898A818288CA81C2688A6070
:10738000807D062802D00020087410BD0120FBE794
:1073900003220A70C2888A810289CA81C068886013
:1073A00010BD04230B70C0888881CA818A6010BD1B
:1073B0000520087010BD30B50446006887B00D4642
:1073C000806800281FD018216846FFF728F801952B
:1073D000A0680590207910B1012810D107E00120A4
:1073E0008DF8000020690290E068039005E002201B
:1073F0008DF80000E0680003029060690490206846
:1074000081686846884707B030BD000070B5064DFA
:107410000646002455F8241009B130468847641CFC
:10742000042CF7D370BD0000505E00200AB100F0BC
:1074300013BC00F0FBBB406802F096BB70B510B106
:107440004FF4064070BD1C4C0025207B08B125730D
:1074500001E000F0A5F8207808282AD2DFE800F043
:107460002904080C10291422BDE8704000F026B849
:10747000BDE8704000F082B8BDE8704000F064B82C
:10748000BDE8704000F040B80620207060880A49CE
:1074900000EB8000283901EB80004068BDE87040B7
:1074A00002F010BA072020706560BDE8704002F05D
:1074B00017BA48F20E6070BD145F00201149F0B495
:1074C0008A1C00200346A1F128050C18A67A4EB1AB
:1074D000A37200EB800405EB8404E66816B9247CF3
:1074E000012C0AD0401C80B20228EED30B704B80D6
:1074F0004B60F0BC41F61D5070471080F0BC00F0AE
:107500003DB80000145F00200C48418801EB810267
:10751000A0F1280101EB8201CA6852B10521017076
:10752000074802218180016800230122054800F0FC
:10753000E1BD042202704968F6E70000145F0020F4
:107540004C5A0020DC5A002038B50A490848032468
:107550000B684268898803EB810153880470DB1C47
:1075600000201B0400909B0B034800F0D9FE38BD9F
:10757000145F00204C5A0020DC5A0020074910B547
:107580004888091D02F0DAFB18B1BDE81040FFF78A
:10759000DBBFBDE81040FFF7B7BF0000145F00205D
:1075A00070B5194C0121207808281AD2DFE800F0C4
:1075B0000419191C252929182089134A401C2081E7
:1075C000002060802073283A00EB800312F82330FB
:1075D00043B100232518401C80B2AB720228F3D3BC
:1075E000217070BD0123F5E76068084940888A88EA
:1075F000C01C10448880022004E000F009F8062036
:1076000000E00720207070BD145F00204C5A00205D
:107610000A4909484988026801EB8103074928396A
:1076200001EB83014B6803604A6082880A81022271
:1076300082800020087470474C5A0020145F00209C
:1076400010B50B48FFF76AFE094A083AD2E904343C
:10765000C018D2E9063244F10001C31A71EB0202EC
:1076600004D24FF08072801841F1000110BD00007B
:10767000B8590020428800EB82020C328A4201D9BC
:10768000022070478188A1F57F42FF3A06D0018829
:1076900021B18068401C01D0002070470120704754
:1076A000884204D20068401C01D0012070470020AD
:1076B000704700002DE9F0412C4D002420B16C6092
:1076C0004FF40640BDE8F0810879012250B1284B03
:1076D00001280BD0254A02260832022821D003288F
:1076E00029D12CE00A7102F0FBF822E05FF00000E3
:1076F00000EB800113F82110022908D0401C80B251
:107700000228F5D32A706C6041F61D50DAE700EBD1
:10771000800003F8204003EB8000406802F0D2F8BC
:1077200007E00C719680116800230122114800F0D7
:10773000E1FC0028C6D06C6048F20D60C2E70C483E
:107740000C7128304188106801EB810703EB870139
:10775000D1F804C0C2F800C04860B2F804C0A1F873
:1077600008C0968003F82740D8E70000445A00205C
:10777000EC5E0020DC5A00200146034802888A4261
:1077800000D0002070470000F05B00202DE9FC5F76
:107790000E008346DDE90C47C6F10000984692468C
:1077A000814600D40846012503E000BF90FBFAF0B3
:1077B0006D1C5045FADAA84500D9454624B1002E83
:1077C00001DB780700D5641EB80702D5B8F1000FB9
:1077D0000AD0F80708D13CB1A54205D2202158466D
:1077E000641EFFF7ADFCF6E7002E02DA4E462D21AF
:1077F00002E0780703D52B215846FFF7A1FC07F0DC
:10780000030002280BD1B8F1000F08D13CB1A5420A
:1078100005D230215846641EFFF792FCF6E7CDE909
:107820000047434652463146584603F07BFABDE8CE
:10783000FC9F000070B50D46044600684FF4887147
:1078400001F082FC4FF49071206801F07DFC4FF450
:107850009271206801F078FC4FF4A271206801F069
:1078600073FC4FF4AC71206801F06EFC2068124983
:10787000C0F804132068690740F30730090E002898
:1078800004DB00F1E02080F8001405E000F00F00B8
:1078900000F1E02080F8141D206840F30730002834
:1078A00009DB00F01F02012191404009800000F136
:1078B000E020C0F8001170BD100342000246002015
:1078C0001268530713D502F00300012802D00228E2
:1078D0000CD105E0C2F383100B68801C184404E04F
:1078E0000223086803EB925210440860012070479D
:1078F000F0B58488A518944200D82246A41AC288FC
:10790000D6189A4200D81346D21A4B880788BB4231
:107910000CD34088834209D88888A04206D3A84265
:1079200004D8C888904201D3B04201D90020F0BDEC
:107930000120F0BD800701D0002070470120704772
:10794000704700002DE9FF410026244800F091F91E
:107950002248001F074600F08CF9214C2149A068FD
:1079600000900D6800E000986946284004EB800014
:107970000C30FFF7A3FF0028F5D101AA009901EA16
:10798000050304EB8303491CDB6842F82030401CEC
:1079900000910228F2D3019800F0030001280BD0D7
:1079A000022810D10198032101EB90500099BDF8F5
:1079B0000A6001EB900005E00198BDF80A60C0F391
:1079C000831008440090384600F050F908B1009840
:1079D000A06004B03046BDE8F0810000D46400200F
:1079E000BC600020685A00201CB54FF48041002084
:1079F00001F00EF908B1FFF7D3F800F03BFF314A70
:107A000003204FF0A041C2F800070820C1F8080584
:107A10002E482F4A2C4E801AC0087188032202EB90
:107A20000044032903D320462AA101F07BF800F08B
:107A30003BFF0028FBD102F0E3FC02F0E7FD02F07F
:107A400063FB02F0C3FB2B4D68681430686002F0E2
:107A5000E7FB708803282CD3B5EEC00A6868F1EE06
:107A600010FAFDEEC00AF8EEE00A02DD70EE600AE0
:107A700001E070EEC00A9FED201AB5EEC00A60EE7C
:107A8000810AFDEEE00AF1EE10FACDED000A019058
:107A900006D210EE100A10F1814F01D217A200E0B9
:107AA00017A2BDEEC00A204616A110EE103A01F052
:107AB0004DF800F0F9FE0028FBD1142000F068F921
:107AC000C2E700000C000050485B0020C0B4020078
:107AD00010B402000D0A5457492073656E736F721B
:107AE000206578616D706C65207374617274656473
:107AF0002E000000685900200000C8422D00000040
:107B00000000000074656D702C20257325642E25FF
:107B10003032642C2074696D657374616D702C2033
:107B2000256400002DE9F047C5881E1DB6FBF5F75A
:107B30008946B6FBF5F1044605FB176C40791668DB
:107B40006843DDF820A0F718001F874200D9C61A45
:107B5000166001E02468491E0029FBD1A5EB0C0743
:107B60008846B74216D818E004EB0C00001D09EB5C
:107B70000803BAF1000F3A4602D00146184600E069
:107B80001946FEF733FC2468F61B4FF0000CB8448E
:107B9000B54201D9374600E02F46002EE4D1BDE8BA
:107BA000F087000030B5024651B101F081F80021A4
:107BB000074C08E034F821301568AB4202D111605F
:107BC000002030BD491C8142F4D3052030BD0000A7
:107BD000F05A002070B50C460546FEF71BFB002846
:107BE00002D021882868084470BD10B50A884988E9
:107BF0008A4203D1FEF750FB012010BD002010BDCA
:107C000070B50C460546FEF72AFB002802D06188B5
:107C10002868084470BD10B50A8849888A4203D193
:107C2000FEF714FB012010BD002010BD01F01F0362
:107C300001229A40D243490900EB8100114600F02D
:107C400021B84A0950F8220001F01F020121914099
:107C5000084000D00120704701F01F0301229A4024
:107C6000490900EB8100114600F01CB8002100F02A
:107C70000FB8012100F016B808B56A46FEF761FB9F
:107C8000009808BD08B56A46FEF741FB009808BD9C
:107C900008B56A46FEF73BFB08BD08B56A46FEF725
:107CA0001DFB08BD08B56A46FEF724FB009808BD19
:107CB00008B56A46FEF752FB009808BD38B5044681
:107CC00000258DF800506846FEF7C2FF2168626803
:107CD000086890420ED9401E08600178238BE26844
:107CE00001FB0325227A2168101AC0B20A79824268
:107CF00000D208719DF80000FEF7CEFF284638BD7F
:107D000038B5054600208DF800000C466846FEF7A1
:107D10009FFFE868298B201AB0FBF1F12A681068F0
:107D2000431C136001709DF80000FEF7B5FF38BDDD
:107D300010B530B1017A42680368891AC9B21A6075
:107D400006E00E2010BD03681A68541C1C601170F8
:107D5000491EC9B2F7D2006800210171084610BD62
:107D6000C20800F007030120895C98400840704772
:107D700000F180400068002800D00120704708B55D
:107D800000F18040002101600068009008BD000003
:107D90002DE9F041040007D0044E4FF47A47751CDA
:107DA0003846A847641EFAD1BDE8F081D0AE020083
:107DB00070B50D4C0125207808B185260EE0002015
:107DC000A06060602061E060084801F0E1F90646CB
:107DD00001F040F908B901F0C5F9257001F0BAF9D0
:107DE00000B1A570304670BD9C5C0020C1710200DE
:107DF00038B500258DF800506846FEF729FF084C7D
:107E0000E068401EE060E06828B901F0A3F910B90D
:107E100001F0CEF9A5709DF80000FEF73DFF38BDDA
:107E20009C5C00202DE9F041064604780B4815467D
:107E30000F4640F82420083040F82430487B10B129
:107E4000084602F05DFA0DB1054A00E00022234623
:107E50003946301DBDE8F04101F008BAA0590020B4
:107E6000ADA3020038B5001D049C009401F088FA0F
:107E700038BD38B5001D049C009401F081FA38BD6E
:107E8000F0B505460478154889B0164640F8242018
:107E9000124A0869121DA2F1080742F82400487F1F
:107EA000385520226846FEF7A1FA04942878385CF9
:107EB00048B10EB10A4A00E000226946281D01F0CF
:107EC000C9FB09B0F0BD0EB1064A00E000226946C8
:107ED00005F10C0001F088FAF3E700008859002052
:107EE000E1AB020029AA02000FB408B503990029EA
:107EF00004D004AA00926A4600F00FF801B05DF8C1
:107F000014FB10B582680446002A05D0D4E90403A6
:107F1000216898470020A06010BD2DE9FC479146DC
:107F20000C00804676D014F8011B39B125290ED0FB
:107F30004046FFF705F920780028F4D198F80C00A6
:107F4000002867D04046BDE8FC47FFF7DABF0020B5
:107F5000012221782B291BD02D2902D0302908D1CC
:107F600002E040F0010001E040F00200641C002A41
:107F7000EFD100252A290ED02178A1F130020A2A5A
:107F800011D205EB850201EB4205641C303DF1E79F
:107F900040F00400EAE7D9F800100B1DC9F80030E2
:107FA0000968641C0D44217800232E290BD114F894
:107FB000011FA1F130020A2A05D203EB830201EB73
:107FC0004203303BF3E76C290DD068290BD06929B7
:107FD00021D00BDC252918D0582931D063290ED0A7
:107FE000642915D117E014F8011FECE7702969D056
:107FF000732932D075291BD0782909D120E0D9F80E
:108000000000011DC9F8001001784046FFF798F8FC
:10801000641C90E76CE0D9F800100A1DC9F8002034
:108020000968CDE900500A224046FFF7AFFBEFE7B1
:10803000D9F800100A1DC9F8002009680A2206E0D4
:10804000D9F800100A1DC9F8002009681022CDE9EE
:108050000050404602F066FEDAE7D9F8001000272B
:108060000A1DC9F800200E68C00705D112E040467D
:10807000761C7F1CFFF764F831780029F7D104E003
:10808000202140466D1EFFF75BF8BD42C0D9002D90
:10809000F6D1BDE74EB13046FEF7CCF9074604E015
:1080A000202140466D1EFFF74BF8BD4206D9002D3A
:1080B000F6D103E04046761CFFF742F831780029FC
:1080C000F8D1A5E7D9F80000011DC9F8001005682E
:1080D00030214046FFF734F878214046FFF730F86A
:1080E00008200021CDE90001034610222946B0E70F
:1080F000BDE8FC872DE9F84F894605003248334931
:10810000304FA0EB01004FEAD0004FF0010101EB2E
:10811000004478889A46164626D0296800292FD030
:10812000002E38D06A6849464FF010081268531E76
:1081300013EA090F10D172432846FEF7BFFC00284E
:1081400034D0286853463246046901B0494628466F
:10815000A446BDE8F04F6047002831D020461C4BB4
:108160001CA2CDF8008028E038B10E2000902046F7
:10817000174B22A223A100F0E0FC0E20BDE8F88FEF
:1081800038B1082000902046114B29A21DA100F013
:10819000D4FC0820F2E738B10920009020460C4BAF
:1081A00026A218A100F0C9FC0920E7E7788838B1B9
:1081B000074B234A2046CDF8008012A100F0BDFCF9
:1081C0001020DBE73C5B0020A8B4020010B40200E2
:1081D000C7AF0200616464725F69735F7061676555
:1081E0005F616C69676E656428705F66732C2070D0
:1081F0006167655F6164647229000000705F667387
:1082000000000000257320636865636B2066616968
:108210006C656420696E202573282920776974684D
:108220002076616C756520307825782E000000007E
:10823000705F66732D3E705F617069006C656E00E3
:1082400078B10200044801214174007A08B100208D
:108250007047012070470000305E0020012801D0E7
:10826000032808D10449002201284A7400D00020C4
:10827000087401F029BC7047305E002070B50246DA
:10828000022801D0032A45D1234C207A002841D06E
:10829000012833D0022831D120480023022A006867
:1082A00002D0032A2AD11BE0E360017911B1012930
:1082B00024D10DE0D0E90565711B4FF48056B14221
:1082C00000D33146294481614569A9420ED015E0A9
:1082D0000169491C0161426991420FD1237213E087
:1082E000E168491CE160082908D9E3602372022A89
:1082F0000AD00D21FFF75FF801F0DCFB607C28B1AC
:10830000BDE8704000F0ACBE0021F3E7BDE870406E
:1083100001F0DABB70BD0000305E0020085A00207A
:108320002DE9F84F914605004348444A414EA0EBE1
:1083300002004FEAD0004FF0010202EB00448B46EE
:108340007088DDF828A098464FF00E011CD0B9F1D6
:10835000000F1FD02968002926D00921B8F1000F8D
:108360002DD06A685368B8FBF3F703FB1782002A25
:108370002CD030B1324B204632A200913CA100F00B
:10838000DCFB0920BDE8F88F60B120462C4B43A2EE
:10839000009104E030B12A4B204642A2009134A162
:1083A00000F0CBFB0E20EDE738B10820009020460E
:1083B000234B3EA22EA100F0C0FB0820E2E70028DC
:1083C000DFD020461E4B3CA20091D7E75846FEF76F
:1083D0006FFB102798B14846FEF76AFBB8B14246DA
:1083E00059462846FEF76AFBD8B1CDF800A02868A8
:1083F00043464A46C46859462846A047C2E77088A3
:10840000002815D020460E4B2CA2009705E070885E
:1084100070B10B4B20462FA2009715A100F08DFBE9
:1084200006E0708820B12046054B33A20097F4E7A0
:108430001020A7E73C5B0020A8B4020010B40200A3
:10844000B4AF020021286C656E202520705F667332
:108450002D3E705F666C6173685F696E666F2D3E5E
:1084600070726F6772616D5F756E697429000000CC
:10847000257320636865636B206661696C656420A1
:10848000696E202573282920776974682076616CCD
:10849000756520307825782E00000000705F6673C7
:1084A00000000000705F737263000000705F66730D
:1084B0002D3E705F617069006C656E00616464726E
:1084C0005F69735F616C69676E65643332286465E8
:1084D00073742900616464725F69735F616C6967BA
:1084E0006E65643332282875696E7433325F74297F
:1084F000705F737263290000616464725F69735F07
:1085000077697468696E5F626F756E647328705FF7
:1085100066732C20646573742C206C656E290000D2
:1085200070B541EA4201DDE904564FF0A04441EA4A
:10853000830141EA052104EB800041EA0641C0F8CD
:10854000001770BD70B541EA4201DDE904564FF0F5
:10855000A04441EA830141EA052104EB800041EA9D
:108560000641C0F8001770BD70B541EA4201DDE96F
:1085700004564FF0A04441EA830141EA052104EB8F
:10858000800041EA0641C0F8001770BD1CB500210B
:1085900000910B4601220191FFF7C2FF1CBD1CB5E3
:1085A000002100910B4601220191FFF7CBFF1CBD7A
:1085B0001CB500220B46009211460192FFF7B0FF56
:1085C0001CBD1CB500220B46009211460192FFF71C
:1085D000B9FF1CBD1CB5002100910B460122019181
:1085E0001146FFF79DFF1CBD1CB5002100910B46F5
:1085F000012201911146FFF7A5FF1CBD4FF0A042DB
:1086000002EB8000D0F8002722F44032C0F80027A7
:10861000D0F8002742EA0141C0F800177047000077
:1086200038B5094B44181B6800936B4608E000BF3F
:1086300053F82010D1F8205520C2C1F82055401C15
:108640008442F5D838BD000018AF02004FF0A042B8
:1086500001218140C2F8081570470000034908B5A0
:108660000844002101600068009008BD00600040DF
:1086700002494058012800D00020704700600040A7
:108680002DE9F041054620480E460024D0F810346C
:1086900019460AE0CA681179A14205D1641C0A2C66
:1086A000F6DB4FF0FF342BE011680029F2D1611C9A
:1086B00026D0E9680C71D0F8101459B1C968EA687D
:1086C00009681160D0F81004C06805600027DFF861
:1086D0003C8011E0C0F81054E96800200860F5E71C
:1086E00008EBC700C279B24200D33246E868394687
:1086F000007900F0E7FA7F1C00F0DAFAB842EFD810
:108700002046BDE8F0810000BC60002010B40200EB
:108710007047FDF773BF704708B5034A00924023C6
:10872000024A00F005F808BDF99E0200245F00200F
:10873000F0B595B01C4615460F4608461A9E00F047
:10874000AFFB182109A8FDF76AFE0E96CDE9095482
:108750000023082203A9384600F0B7FB05980690CD
:10876000BDF81000ADF81C00BDF81200ADF81E00F9
:1087700000208DF821000398082600F0030001284E
:1087800002D0022818D032E003983346850AC0F39D
:10879000C2008DF8200003980FA9C0F38314A20033
:1087A000384600F092FB09A8009006AB22460FA9BC
:1087B000284600F0D1FA1AE00398840DC0F3C200F5
:1087C0008DF82000082C01D2254600E0082533460C
:1087D0002A460FA9384600F078FB2E44641B09ABEB
:1087E00006AA29460FA800F0BBF9002CEAD13846AA
:1087F00000F05CFB15B0F0BD7047012002F032B90B
:10880000084810B50178084A515C19B1001D00F004
:10881000BBFF02E00C3000F0B5FEBDE810400020C8
:1088200002F020B9C05A00208459002008B5034A3C
:1088300000924023024AFFF77BFF08BD499F0200D8
:10884000DC6400200A4A012902EBC00007D002299B
:1088500007D0032907D0042907D000207047022041
:1088600070470420704700797047407970470000D6
:1088700010B4020010B5FFF74CFF04210948FFF7C0
:10888000FFFE08480124C0684471FFF7B6FF0548A1
:1088900004211030FFF7F4FE02481030C068447124
:1088A00010BD0000F0B302002DE9F04F8DB0FEF7CF
:1088B0005FFC18B100200DB0BDE8F08F8D4C00209A
:1088C000C4F81804BFF34F8F8B49A06802900D685D
:1088D0004FF00009284004EB80000BE0D4F81804A6
:1088E00070B961680298814201D8A160E2E728402E
:1088F00004EB80000C3002A9FEF7E0FF0028EDD168
:10890000002003AAA046029901EA050308EB8303AD
:10891000491CDB6842F82030401C02910228F2D347
:10892000039800F00300022802D0012850D0C2E0D2
:1089300003985022810D8A46B2EB905F00D85021F7
:108940000C4664F39F50C0F3C207039008316B4894
:1089500000F05DFA0600EAD000F0A2FA4B460822C9
:1089600003A9304600F0B9FA029909F1080B294031
:10897000681A8000001D844223D95E4D0C3530B149
:10898000C2B208EB8101201A91460C3104E029465D
:10899000E2B2002591462846C4B25B46304600F05C
:1089A0009CFA0BEB09032DB1224629464FEA06003B
:1089B00000F093FA02990AF1030001EB9000029093
:1089C0003DE008EB81015B46224630460C31EFE783
:1089D0000398C0F38310062800D30620039960F3A0
:1089E0008911C1F38310C1F3C207801C0391810078
:1089F000424800F00CFA06005DD000F051FA4B46F8
:108A0000082203A9304600F068FA09F10809002499
:108A10000FE002984B4600EA0501401C08EB81017B
:108A20000290042230460C3100F057FA09F1040993
:108A3000641C0398C0F38310A042EAD8D6B3D8F8D8
:108A40001044D8F818044546F8B1304600F02EFA24
:108A50004AE0E0684179012915D10179BDF810009B
:108A6000274A52F8200001EB4102072191400840BB
:108A7000D040052F00D10327B84204D321682046F7
:108A80000A6831469047E0680468002CE1D130461E
:108A900000F00CFA00208DF800006846FEF7D8F8C8
:108AA000D5F8180408B90298A8609DF80000FEF7F0
:108AB000F3F819E0FFE7D8F8104405E021682046F4
:108AC00089688847E0680468002CF7D10D48408821
:108AD000022809D30C480D49401AC008022101EBB5
:108AE00000400BA100F01EF8FEF742FB80F00100F1
:108AF000E1E60000BC600020685A0020E0B40200FB
:108B0000585B0020485B0020C0B4020010B4020093
:108B10004261636B656E647320666C75736865642F
:108B20000000000000231A4601F086BA08B50123B0
:108B300000926A4601F080FA08BD3EB5069C8DE8B9
:108B40001C0003236A4601F077FA3EBD7FB5DDE9DC
:108B500008458DE83C0004236A4601F06DFA7FBDAC
:108B60002DE9F0470E4680461C469246082940D81B
:108B700094F80C90002020731946104600F042FF34
:108B80000025B54206D218F805201BA12046FFF7A4
:108B9000ABF903E01AA12046FFF7A6F96D1C082DDA
:108BA000EFD318A12046FFF79FF90025B54212D256
:108BB00018F805707E2F08D8FDF714FC0068C05D1A
:108BC00010F03E0F01D03A4600E02E220EA12046C2
:108BD000FFF78AF903E00DA12046FFF785F96D1C28
:108BE000082DE3D301222146504600F0EDFE84F823
:108BF0000C90BDE8F087000020253032780000009E
:108C0000202020007C0000002563000020000000E0
:108C10002DE9F0471F494FF000081F4881F80080F8
:108C200000F042F9002832D11C4800F05EF91C49DE
:108C3000DFF87090DFF870A0A1EB0900C6080024EF
:108C400014E000273D460CE0AC4209D059F834004E
:108C500059F835101422FDF7FDFB002800DD7F1CBC
:108C60006D1CB542F0D32AF82470641CB442E8D3DA
:108C70000020414654460D4D06E000BF04EB800243
:108C8000518045F82010401CB042F7D30020BDE8C9
:108C9000F0870000BC600020E0B4020008B00200D1
:108CA000E0B4020010B40200F05A0020585B00202B
:108CB00002480349401AC00870470000E0B40200AF
:108CC00010B4020070B5114B00EB400003EB8104BF
:108CD0000F4B02F0070203EB8101072303FA00F6B2
:108CE0000D688240B5432A4300200A604FEA000124
:108CF00003FA01F51540CD40ADB2854200D92846B2
:108D0000C91C0A29F4D3608070BD0000F05A00200D
:108D1000585B002013B56846FEF744FF08B10020F9
:108D20001CBD0248009950F831001CBD10B402006F
:108D300070B508480125D0F81044057007E0E068D8
:108D400045712168204649688847E0680468002C1E
:108D5000F5D170BDBC6000202DE9FF4781460C9D18
:108D600000200C462F7B2873984616462946184645
:108D700000F048FE072E42D2DFE806F004090F1685
:108D80001F2A360049462846FFF7AEF837E0494625
:108D900028462268FFF7A8F831E0D4E900234946C5
:108DA0002846FFF7A1F82AE0A0680090D4E9002344
:108DB00049462846FFF798F821E0D4E90201CDE9B9
:108DC0000001D4E9002349462846FFF78DF816E054
:108DD00004F1080007C88DE80700D4E900234946DC
:108DE0002846FFF781F80AE004F108000FC88DE873
:108DF0000F00D4E9002349462846FFF775F8002202
:108E00002946404600F0E0FD2F73BDE8FF872DE9BD
:108E1000F041058B80462D1F4819C01CB0FBF5F0B2
:108E2000C6B24046FEF74AFF041E19D0002020714A
:108E300001206071E58000272546761EC4F8008079
:108E40000BE04046FEF73AFF60B16179491C617161
:108E5000286005467F1CC0F80080B742F1D3204649
:108E6000BDE8F081204600F002F80020F8E72DE987
:108E7000F041457901466B1E002201E00968521C51
:108E80009A42FBD30F680146002605E038460C687D
:108E9000FEF736FF2146761CAE42F7D3BDE8F081DF
:108EA0000121001DFEF7E8BEFEF742BF10B50446E3
:108EB0000121001DFEF7FCFE10F0FF0F04D120463B
:108EC000BDE81040FFF7D3BF10BD1CB501920122D1
:108ED000009201AAFEF726FE1CBD1CB501920022DD
:108EE000009201AAFEF71EFE1CBD8268002191605F
:108EF00082681161826851618268D16082685160C4
:108F0000806801607047000030B51548ADF5017DFF
:108F10000078002821D04FF4FA7500BFADF8005258
:108F200080A9684661DF38B1052816D00DF5017DAE
:108F3000BDE83040FDF734BE6C460A497DA800F01C
:108F4000BBF806E0D0E90021204690477DA800F05C
:108F5000CAF87F980028E1D0F4E70DF5017D30BD17
:108F6000D75A0020C8B00200F8B5134C2078C0B121
:108F70000120A07000F08AFF112814D0022000F018
:108F80009DFF00258DF800506846FDF761FE11DF5A
:108F9000064625709DF80000FDF77EFE2EB1304696
:108FA000F8BD0820F8BD0020F8BDA57000F0F8FF5E
:108FB000032000F083FFF6E7D45A00207CB5194C5B
:108FC000207808B108207CBD0120A070002000F0AE
:108FD0005DFF112819D0002000F070FF1248002614
:108FE000006801908DF800606846FDF731FE0F497A
:108FF00001A810DF05000AD0002020709DF80000B5
:10900000FDF74AFE2DB128467CBD00207CBD012025
:10901000F3E7A670667000F0E3FF012000F04EFF5A
:10902000F3E70000D45A00205CB002000D6B020090
:109030000EB50749684600F03FF805E0D0E900109A
:109040008847684600F04FF802980028F6D10EBD18
:1090500078B002000148007870470000D45A002020
:109060000548817819B1007818B1FFF77DBF082055
:109070007047FFF7A3BF0000D45A00201FB5684611
:109080004BDF30B1052814D004B0BDE81040FDF727
:1090900087BD084901A800F00FF806E0D0E90021DB
:1090A0000098904701A800F01EF803980028E6D029
:1090B000F4E71FBDE4B00200016009684160AFF34E
:1090C000008010B5D0E900215368994201D10021F8
:1090D00004E0D1E90034A34202D01946816010BDFA
:1090E00008314160F0E7816800290BD0026892687E
:1090F0000A44826041684B689A4203D1083141605A
:10910000FFF7DFBF70474058002800D001207047AC
:1091100008B5002242504058009008BD4058002831
:1091200000D00120704708B50022425040580090FE
:1091300008BDD0F80403084000D001207047405813
:10914000002800D00120704708B500224250405846
:10915000009008BD02480068002800D00120704738
:109160000004014008480068012110F0010F06D1F9
:109170004FF0E020C02280F800248430C16703490A
:10918000012008607047000000E100E01805004081
:109190000649024600200B790BB1852070470A6012
:1091A00001220A7100224A71704700009059002084
:1091B000022010B54107C1F808034FF48270FEF792
:1091C000DEFD05490120086004480168C1F3004143
:1091D0000029FAD110BD00000C0000401804004026
:1091E000002802D0014980010847704741AF0200C2
:1091F0000121B1EB507F01D1012070470020704761
:1092000038B50D4600F04AFC040014D000208DF85B
:1092100000006846FDF71CFD207928B19DF800008C
:10922000FDF73AFD112038BD0120256020719DF821
:109230000000FDF731FD002038BD10B500F02EFC18
:10924000002802D000210160017110BD0179064A99
:10925000C1EB0111006802EB81010522C0F8002575
:10926000022081F82E0070475C5D00202DE9FC4152
:109270000646174600790D46334AC0EB001102EB53
:109280008104984694F82E1011B10820BDE8FC81A5
:109290002E4951F820103068FFF7B2FF08B11120B5
:1092A000F4E7C4E900780027A76084F82D7084F8FB
:1092B000317084F83070687B84F838004FF006080D
:1092C000CDE9008703233A4639462868FFF74CF971
:1092D000CDE900870022032311466868FFF744F9AF
:1092E000D5E900123068C0F80815C0F80C25A96847
:1092F000C0F824152068012208B3306840F3073114
:10930000287B00294FEA401004DB01F1E02181F8BD
:10931000000405E001F00F0101F1E02181F8140DD6
:10932000306840F30730002809DB00F01F0102FA23
:1093300001F14009800000F1E020C0F8001184F83C
:109340002E200020A2E700005C5D002024AF020078
:10935000F0B585B015460E4607461C46142207494F
:109360006846FDF743F88DF80160002269463846EB
:109370000395019400F020F805B0F0BD28AF02007D
:109380002DE9F04186B00E4680461C461546142154
:1093900068460C9FFDF743F88DF801600395019432
:1093A0000FB1202200E000226946404600F004F898
:1093B00006B0BDE8F081000030B40379054CC3EB82
:1093C000031304EB830413460A460068214630BCAD
:1093D00001F0AEBA5C5D00200149024801F06ABBB1
:1093E0000C5D0020002000402DE9F0410546007989
:1093F00016460F4600EB40012D4A01EBC00102EB7F
:10940000810494F82A1011B10820BDE8F08129499F
:1094100051F820102868FFF7F3FE08B11120F4E797
:1094200039462846FDF752FC6660386920603000F6
:109430004FF001062FD03F7F4FF48E712868FFF761
:1094400072FE4FF4A2712868FFF76DFE28681A4972
:10945000C0F8041328684FEA471140F3073000288A
:1094600004DB00F1E02080F8001405E000F00F00BC
:1094700000F1E02080F8141D286840F30730002830
:1094800009DB00F01F0106FA01F14009800000F13C
:10949000E020C0F8001128680421C0F80015002061
:1094A000A061E06184F8290044F8140FA675ACE7C8
:1094B0000C5D00201CAF0200800002002DE9F05F6F
:1094C000054600790B4600EB400101EBC000244942
:1094D00001EB8004284600F045F810B11120BDE8EA
:1094E000F09F62614FF00009C4F82090A36084F8F7
:1094F00028904FF48E784E4641462868FFF713FEB9
:1095000028684FF0010AC0F808A02146286801F039
:1095100061FA606808BBD5F800B067690FE000BF6A
:1095200094F8280008B10F2615E041465846FFF789
:10953000F5FD0028F4D02146584601F04BFA206A88
:10954000B842F2D3574641462868FFF7E7FD0028A6
:10955000F9D02868C760C4F814903046BFE700000F
:109560000C5D0020007900EB400101EBC0000449D4
:1095700001EB80004069002800D001207047000006
:109580000C5D00202DE9F047044600794FF00009FA
:1095900000EB400101EBC000284901EB8007206887
:1095A000C0F800957868B0B120682549C0F8081364
:1095B000206840F3073000280DDB00F01F02012176
:1095C00091404009800000F1E020C0F88011BFF315
:1095D0004F8FBFF36F8F2068D0F80C25D0F814851B
:1095E000D0F80865D0F810554FF0FF31C0F81415C9
:1095F000C0F80C152068C0F80815C0F81015501CEC
:1096000002D01046FEF7C2FFB8F1FF3F02D040463D
:10961000FEF7BCFF681C02D02846FEF7B7FF701C9F
:1096200002D03046FEF7B2FF2068FFF706FE87F84B
:109630002A90C7F80490BDE8F08700000C5D002078
:10964000840202000149024801F0E2BA385D0020BC
:10965000002000402DE9F0410546164600790F46EE
:10966000154A00EBC00102EB810494F8201011B1FF
:109670000820BDE8F081114951F820102868FFF753
:10968000BFFD08B11120F4E739462846FDF762FB1B
:109690006660386920601EB1397F2846FEF7CAF837
:1096A00028680821C0F800150020A061E061606111
:1096B000012184F82010DCE7385D002020AF020093
:1096C0002DE9F04704460E460079274900EBC0001B
:1096D00001EB800517463046FFF78AFD30B1204682
:1096E00000F044F820B11120BDE8F0871020FBE71E
:1096F0006F61AE604FF490774FF0000839462068F4
:10970000FFF722FD4FF4AC7631462068FFF71CFDD1
:109710002068AA686969C0F84425C0F8481520681F
:109720004FF00109C0F808906868D0B9BA465146B0
:109730002068FFF704FD074631462068FFF7FFFC6D
:109740000743F4D010B14FF00F0808E02068C0F8CC
:109750000C9031462068FFF7F2FC0028F9D0002079
:1097600068614046C0E70000385D00200079054987
:1097700000EBC00001EB80004069002800D0012010
:1097800070470000385D00202DE9F047064600795B
:109790003D4900EBC00001EB800534686868012793
:1097A000A8B13A49C4F80813306840F307300028DC
:1097B0000DDB00F01F0107FA01F14009800000F104
:1097C000E020C0F88011BFF34F8FBFF36F8FD4F844
:1097D000000220F02000C4F80002A8694FF4A2782B
:1097E00020B141462046FFF7AFFC67604FF4AC79EB
:1097F00049462046FFF7A8FCE76047464946204611
:10980000FFF79DFC0028F9D0A86928B13946204609
:10981000FFF795FC0028F1D04FF0000AC4F800A52E
:109820003068D0F80C25D0F81495D0F80885D0F819
:1098300010754FF0FF31C0F80C15C0F814153068E2
:10984000C0F80815C0F81015501C02D01046FEF7DD
:10985000A6FEB9F1FF3F02D04846FEF7A0FE781CF5
:1098600002D03846FEF79BFEB8F1FF3F02D04046DB
:10987000FEF795FE2046FFF7E0FC85F820A0C5F82E
:1098800004A0BDE8F0870000385D0020100342000E
:1098900003490860034801680029FCD070470000B4
:1098A00004E5014000E401408A7D022A04D90289CE
:1098B000CB881A44D21C02814289C988511AC91E18
:1098C0004181704708B50021009101460823024AF2
:1098D0000248FEF725FD08BDECAF0200DC5A00206F
:1098E00008B50020009004480823044A0168044891
:1098F000FEF716FD08BD00004C5A0020E4AF020040
:10990000DC5A00202DE9F05F2A4F06464FF0A04AAE
:109910004FF0010B0024381990F95010491C3CD02D
:1099200090F85000314620F0C0052846FEF718FA9E
:1099300020B3204600F040F881460AEB8500D0F8BD
:109940000007C0F30148B8F1020F18D002212846E1
:10995000FEF754FE0BFA05F1CAF820152846FDF76C
:1099600013FC57F820204AB14846B9F1030F11D033
:10997000B8F1020F05D0B8F1030F07D00DE00321B5
:10998000E5E74846B9F1010F04D006E04846B9F1D1
:10999000020F02D1014628469047641C042CBAD31A
:1099A000324601210020FEF73BFE30680028B1D18D
:1099B000BDE8F09FB05C00200249084490F85000D8
:1099C00080097047B05C002010B50C46017A05296B
:1099D00008D0407A38B1084808A102682046FEF74E
:1099E00083FA00E01AB106A12046FEF77DFA204670
:1099F000BDE81040FEF785BA985A00202573000094
:109A00000D0A000038B5C3880D46044633B114A0D2
:109A1000009015A216A12846FEF766FA217A0529BC
:109A20001CD0607A48B1A088FEF70CFF164951F8A7
:109A3000202016A12846FEF757FAA0880021FFF73C
:109A400069F903461049207A143951F8202001B0F1
:109A50002846BDE830400EA1FEF746BA38BD0000EA
:109A60001B5B306D000000001B5B313B33316D0030
:109A700025734C6F67732064726F70706564202863
:109A800025642925730D0A00985A002025730000CB
:109A90003C25733E2025733A20000000034988428C
:109AA00001D10348704700207047000000200040AB
:109AB00098590020034802490068FEF796B8000054
:109AC0000C5A00206CAF02002DE9F041234C002518
:109AD000234E207A012730B92248311D0068FEF755
:109AE0008FF8306038B1022020723168087928B1CF
:109AF00001281ED116E06560BDE8F081D1E90503BB
:109B0000C01A4FF48052904200D31046B7EB900F2A
:109B100001D2820800E001220869C968184419448A
:109B200029DF03E0D1E90301084428DF58B11128F7
:109B300012D003213068FDF73EFC25726560BDE858
:109B4000F041FFF7B7BF207C0028D5D1BDE8F04138
:109B500000210220FEF792BB2772CDE7305E002085
:109B6000085A00206CAF0200F0B5264D264E85B095
:109B700004460027686828B9224930680831FEF792
:109B80003FF8686001460078072817D2DFE800F048
:109B9000160408080E0E12002046FDF78BFD02E0A9
:109BA000204601F019F9040029D009E02046FDF70C
:109BB00065FBF8E72046FDF741FCF4E748F20E6448
:109BC00014216846FCF72BFCA4F5E8501D3800D1A1
:109BD0000024019469466868FDF7B3FB6846FDF709
:109BE00015FC08496F60002408313068FDF7FDFF5F
:109BF000044801210C30FEF75BF80028BAD105B00B
:109C0000F0BD0000245A0020DCAF02002DE9F0472F
:109C1000074620481C46154600780E4670B18DB1A7
:109C200084B1DFF874804FF00009A08802282DD29B
:109C300000EB800118F8210020BB1BE048F2016016
:109C4000BDE8F08748F20460FAE720681FB1818818
:109C50003A8891420ED11EB101883288914209D1D1
:109C600080682860206868600B4828300089288157
:109C70000020E5E7A088214600F060F80028E4D144
:109C8000C4F80090A088401CA080CEE748F209608C
:109C9000D6E70000445A0020EC5E0020F8B50546E7
:109CA0004068244F0C46002648B32349CA688242C4
:109CB00025D80969814222D3FDF73CFEF8B12889F5
:109CC000398988421BD1D5E900018A68904216D1B2
:109CD0000020A7F1280200BF00EB800302EB830302
:109CE0005B688B4205D203F580538B4201D92080FB
:109CF00011E0401C80B20228EED30020F8BD26807F
:109D000000960AE0009829688068884205D100988A
:109D10006860388928810120F8BD2088694600F0F4
:109D20000DF80028EED12088401C80B22080022847
:109D3000E6D3E2E7145F0020DC5A002070B50E463F
:109D400000EB8001134800EB81004468306804F5A3
:109D5000805518B1418800EB810411E0083410E00F
:109D600029462046FDF786FC20B1012805D00228AF
:109D700007D10DE00120346070BD608804EB8004E1
:109D80000C3429462046FDF78BFC0028E8D170BD35
:109D9000002070BDEC5E002038B50C46002100911B
:109DA00001460423084A0948FEF7BAFA10B148F2FE
:109DB0000D6038BD064A04EB840102EB81010120ED
:109DC0000874002038BD0000E0AF0200DC5A00201B
:109DD000EC5E002070B5054688690C4600284FF4FB
:109DE000847128460AD0FFF79EF9D5F81805626AF3
:109DF000E1688854606A401C606270BDFFF793F9A7
:109E0000D5F8180570BD1FB501238DF80030CDE9D8
:109E10000121D0E90012684690471FBD1FB50123FC
:109E20008DF80030CDE90121D0E900126846904755
:109E30001FBD000038B50021012548B1012810D010
:109E400003280DD1FFF78EF9BDE83840FDF7D0BFEC
:109E50004FF0E020C0F88051BFF34F8FBFF36F8FFA
:109E600038BD8DF800106846FCF7F2FE064C2078ED
:109E700008B9FDF79DFFE068401CE060A5709DF803
:109E80000000FCF709FF38BD9C5C00203EB504468D
:109E900009496846FFF710F908E000BFD0E9002142
:109EA0002046904730B16846FFF71DF90298002818
:109EB000F4D13EBD11203EBD60B002003EB5044667
:109EC00008496846FFF7F8F807E000BFD0E900212D
:109ED000204690476846FFF706F902980028F5D11A
:109EE0003EBD00006CB0020002498969002900D023
:109EF00008477047045C00202DE9F04114008846B3
:109F000018D000250E4F032608EB0501224600203D
:109F1000FCF776FB0544241A40B93878002809D0AC
:109F200008494FF47A408847761E05D001203870E2
:109F3000002CE9D1BDE8F08100203870FAE700007C
:109F4000545A002001B0020070B50D4C0020D2B26E
:109F50002070201D0B4D0378EB5C1BB1001DFFF73B
:109F6000AFFB02E00C30FFF7A9FA08B1FCF718FECE
:109F70006078002802D021780029FAD070BD000056
:109F8000BC5A002084590020002805D10349012033
:109F900048700020FDF700B9704700009C5C00206D
:109FA00010B51620FCF772FD48B10C4882684FF4DA
:109FB000800152B1016821F48001016010BDBDE84B
:109FC000104042F20100FCF7EBBD4FF0E020C0F87A
:109FD0008011BFF34F8FBFF36F8F10BD985D0020CE
:109FE00010B51620FCF752FDA0B1114890F80004FE
:109FF0004009082811D20121814011F0EC0F0CD04A
:10A000000C4882684FF480016AB1016841F4800114
:10A01000016010BD42F2010001E042F20200BDE821
:10A020001040FCF7BDBD4FF0E020C0F8001110BD9E
:10A0300016E000E0985D00202DE9F84F0746224821
:10A040009146884605681E46012269461846FDF776
:10A050002DF8DFF878A060B3009800210446801C3A
:10A060000AE000BF00EA050259F821C00AEB8202AB
:10A07000401C491CC2F80CC0B142F3D34FEA174947
:10A08000FDF742F9611C29400AEB810149EA0042CF
:10A090002C40CA600AEB8401C86867F3C50066F308
:10A0A000891068F39F2020F00300401C20F004007A
:10A0B000C8609AF8000001E0FEF7F6FB0028FBD12B
:10A0C000FDF73EFCBDE8F88F685A0020BC60002018
:10A0D000F8B50B4C0D46064669462068FDF77AFD3B
:10A0E00058B10670456069462068FDF794FD10B1CF
:10A0F0000448FDF717F90020F8BD0420F8BD000062
:10A1000048AF0200B859002070B50F2000F098F851
:10A1100005462248224A204E801AC0087188032230
:10A1200002EB0044032904D320462A461DA1FEF772
:10A13000FDFCFEF7B9FB0028FBD1A5F580701738B0
:10A140000CD07088032804D320462A4618A1FEF7B5
:10A15000EDFCFEF7A9FB0028FBD170BD20210220F9
:10A1600000F09CF80021084600F0A7F816212820EE
:10A1700000F09EF88021762000F095F87088032882
:10A1800003D320460EA1FEF7CDFCFEF78DFB002881
:10A19000FBD1012070BD0000485B0020C0B402006C
:10A1A00010B40200747275652049443A2025780085
:10A1B00046616C73652049443A2025640000000024
:10A1C000746D7020696E6974206F6B0010B5002289
:10A1D0001146012000F076F809484088032809D389
:10A1E00008480949401AC008032101EB004007A1B3
:10A1F000FEF798FCFEF758FB0028FBD110BD0000CD
:10A20000485B0020C0B4020010B40200746D7020DE
:10A21000636F6E74696E756F7573206D6F64650022
:10A2200010B5002000F00CF800EE100ADFED030A74
:10A23000B8EE400A20EE200A10BD00000000003CED
:10A2400071B583B0124C002501952570114E009513
:10A25000012303AA31781048FDF70BFE08B1FCF783
:10A260009FFC20780028FCD025700B483178001D19
:10A2700001AA0223FFF76CF808B1FCF791FC2078E3
:10A280000028FCD0BDF8040004B040BA70BD000046
:10A29000685900207059002008AF02000A460146A4
:10A2A000012000F00FB80A460146022000F00AB86B
:10A2B0000A460146032000F005B80A460146072079
:10A2C000AFF3008008B50C4B187059709A700020DD
:10A2D000094A0090501E032301780848FDF7C9FD84
:10A2E00008B1FCF75DFC054901B0C91F4FF47A4085
:10A2F0005DF804EB084700007159002008AF020028
:10A300002DE9F041044640F20C602168890001F11A
:10A31000A041C1F800076168890001F1A041C1F8BE
:10A3200000072068FEF792F96068FEF78FF9216850
:10A3300040F20D60890001F1A041C1F80007616899
:10A34000890001F1A041C1F800070420FEF748FF91
:10A3500000274FF0A04601252179D6F81005C84006
:10A3600010F0010F02D0002F1DD010E0217805FA67
:10A3700001F0C6F80C050420FEF732FF2068FEF756
:10A3800065F90420FEF72CFF7F1C092FE4DB207900
:10A390008540C6F80C550420FEF722FF6068BDE832
:10A3A000F041FEF753B9BDE8F08100001FB50A4641
:10A3B00001788DF8001001798DF8041041798DF83D
:10A3C0000510017A8DF80610017B8DF807100169E0
:10A3D000029140690390044850F82210083850F860
:10A3E0002220684690471FBDA85900200078002809
:10A3F00002D102490120087070470000685900200E
:10A400001FB5124B0FCB8DE80F0010480023104AE8
:10A4100069461038FDF706FD08B1FCF7C1FB0B4893
:10A420000C38FEF713FF0B484088032809D30A486D
:10A430000A49401AC008032101EB004008A1FEF7B9
:10A4400071FBFEF731FA0028FBD11FBDE8AE020018
:10A45000EDA30200485B0020C0B4020010B402006B
:10A460007477695F696E69740000000070B586B02A
:10A470000C46064600F05FF9002853D194F82F00EF
:10A48000002510BB207B022801D003281DD1A26922
:10A49000616A914219D1E16961626169A16294F8CE
:10A4A00020100328C1F3401184F82C1084F82D509B
:10A4B0002146304604D006B0BDE8704000F044B8F4
:10A4C00006B0BDE8704000F0D7B9142204F10C01C9
:10A4D00001A8FBF78BFF94F82F0098B1D6F8C414AD
:10A4E000C6F8C414880701D5012002E0480703D547
:10A4F00002208DF8000007E0C80701D00320F8E72C
:10A500000420F6E78DF8005084F8305094F82000CD
:10A51000400703D594F82F00002803D0D4E9002188
:10A520006846904706B070BD01460320CA0701D0B7
:10A530004FF402408A0701D548F20120490701D5AE
:10A5400048F2022070470000F8B504462E480D4638
:10A55000009000274FF482712046FEF7D9FD4FF49A
:10A5600092712046FEF7D4FD4FF48E712046FEF71F
:10A57000CFFD4FF484712046FEF7CAFD00266E63BE
:10A5800085F82F60A86A012805D195F820004006BB
:10A5900001D4022000E00120C4F800020120206262
:10A5A00095F82D10022900D02060286830B140F2C3
:10A5B0008620A860A868C4F8040322E0009802E09E
:10A5C0000098401E0090002805DD2946204600F036
:10A5D000B2F80028F4D195F82F0048B1D4F8C4049B
:10A5E000C4F8C40418B1FFF79FFF074600E0032733
:10A5F0000098002805DCC4F800650520C4F80005B3
:10A6000003273846F8BD0000A08601002DE9FC476D
:10A610002748284A254F801AC0087988032202EB70
:10A620000044032903D3204623A1FEF77BFAFEF75B
:10A630003BF90028FBD1DFF89490254E0125804698
:10A640008DF8048086F80080012301AA294621485C
:10A65000CDF80080FDF706FC484600E000BF3178E9
:10A6600009B9401EFAD1307858B17888032804D34C
:10A6700020462A4618A1FEF759FAFEF715F90028D8
:10A68000FBD10520FDF784FB6D1CEDB27F2DD7D3E8
:10A690007888032803D3204615A1FEF743FAFEF776
:10A6A00003F90028FBD1BDE8FC870000485B0020CF
:10A6B000C0B4020010B402005363616E6E696E672D
:10A6C00020493243206275732E2E2E00A086010091
:10A6D00068590020D8AE0200466F756E642064652C
:10A6E0007669636520617420307825303258000027
:10A6F0005363616E20636F6D706C6574652E00002E
:10A700008B6A4A6B9A4204D2496A895CC0F81C156C
:10A710000FE091F82C3001220BB1C26106E091F8F4
:10A7200020305B0604D5C26181F82D2000207047DF
:10A730004261012070472DE9F05F0C464FF48276AC
:10A74000054600273146FEF7DEFC20B1314628469B
:10A75000FEF7DEFC012794F82F004FF48E794FF4BA
:10A76000847A4FF492714FF0000B58B12846FEF7EF
:10A77000CFFC49462846FEF7CBFC51462846FEF75B
:10A78000C7FC5CE088462846FEF7BDFC012628BBD6
:10A7900049462846FEF7B7FC90B149462846FEF7E1
:10A7A000B7FC606B4146401C60632846FEF7ABFC7B
:10A7B000A0B921462846FFF7A3FF002857D03EE066
:10A7C00051462846FEF79FFCB8B351462846FEF78F
:10A7D0009FFC41462846FEF796FC38B14146284684
:10A7E000FEF796FC6E6184F82F6028E0A16A606B2A
:10A7F000884224D2D5F81815626A1154606B401C47
:10A800006063A16A4A1E904207D194F82020520644
:10A8100003D40220C5F8000210E0884203D194F866
:10A82000202052060BD5884208D194F8200040061B
:10A8300004D5022084F82D0018E000E02E62C7B194
:10A8400084F82DB094F82F10584679B9A26A616B3C
:10A85000914206D0C5F800050520C5F80005002086
:10A8600000E0012080F0010084F82F000020BDE806
:10A87000F09F0120FBE70000F8B504462B480D4689
:10A88000009000274FF482712046FEF741FC4FF400
:10A8900092712046FEF73CFC4FF48E712046FEF785
:10A8A00037FC4FF484712046FEF732FC0020C4F8D8
:10A8B00000026863064685F82F000120206295F8A3
:10A8C0002D10012900D0A06029462046FFF718FF6F
:10A8D000286830B140F28620A860A868C4F8040354
:10A8E00022E0009802E00098401E0090002805DD5C
:10A8F00029462046FFF71FFF0028F4D195F82F00C6
:10A9000048B1D4F8C404C4F8C40418B1FFF70CFE6D
:10A91000074600E003270098002805DCC4F800651E
:10A920000520C4F8000503273846F8BDA0860100BD
:10A930002DE9F041074691F82D001E4615460C46BC
:10A94000012802D0022804D009E02878012803D089
:10A9500005E02878012802D00820BDE8F0811C48D5
:10A96000C7F8080394F8300020B1A068C7F80403C2
:10A970001120F2E746F38000401C84F830001422D6
:10A98000294604F10C002662FBF730FD6868A062DE
:10A99000E86860626878C7F88805287801280CD0D4
:10A9A00008B9B00601D5012000E0002084F82C0091
:10A9B00021463846FFF760FF03E021463846FFF79F
:10A9C000C3FD21680029C8D184F83010C5E7000014
:10A9D0008642040070B50C4605464FF48E71FEF7B2
:10A9E000A2FB216AA068415C206A401C2062C5F875
:10A9F0001C1570BD1FB500228DF8002002918168E2
:10AA000001914261D0E90012684690471FBD1FB511
:10AA100000228DF800200291816801914261D0E905
:10AA20000012684690471FBD1FB50A4601788DF891
:10AA3000001041680191017A8DF80810C0680390F8
:10AA4000044850F82210001F50F822206846904712
:10AA50001FBD00008C59002001490120087070477B
:10AA6000BC5A002010B588B0044620220E49684622
:10AA7000FBF7BCFC0B2000904FF0FF3001900290E0
:10AA800003904FF0EB7006900CB1084A00E00022F2
:10AA900069460748FDF7F4F908B1FCF781F8044866
:10AAA000001F447008B010BD2CB0020059AA02006B
:10AAB000C05A00202DE9FF470C4605464FF40071AF
:10AAC000FEF737FB01274FF40178002618B34FF447
:10AAD000927949462846FEF721FBE0B149462846CF
:10AAE000FEF721FBC5F8088394F8290000B96F60D0
:10AAF00002208DF80000D5F88004C5F8800403908A
:10AB0000A0690290E0680190A661E661D4E90012B4
:10AB10006846904728E004212846FEF70AFB18B350
:10AB20004FF484712846FEF7F9FAE8B12146284629
:10AB3000FFF750F9616AA069884215D1E06938B120
:10AB4000E268616AA0612069E6616662E06008E02F
:10AB500094F8290000B96F60C5F80883A661E2681F
:10AB6000616A2046FFF74FF94FF48E784146284638
:10AB7000FEF7D4FA80B16069216A814202D294F86A
:10AB8000280028B341462846FEF7CDFA606918B17F
:10AB900061692046FFF72EFF4FF4A2784146284610
:10ABA000FEF7BCFA002818D041462846FEF7BBFA4B
:10ABB00094F8290000B12F60A06900280DD0A6618B
:10ABC000E268616A04B02046BDE8F047FFF71BB9B0
:10ABD00021462846FFF7FEFEDEE7BDE8FF870000BE
:10ABE0001FB50A4601788DF8001041680191017A7D
:10ABF0008DF80810C0680390044850F82210001F18
:10AC000050F82220684690471FBD00008C59002054
:10AC10002DE9FF410C464FF4927705463946FEF781
:10AC20008EFA0026B8B139462846FEF78DFA022082
:10AC30008DF80000D5F88004C5F880040390D5F89D
:10AC40003C050290E0680190A661E661D4E900123B
:10AC50006846904723E04FF4887739462846FEF748
:10AC60006EFAE0B139462846FEF76EFAD5F83C1583
:10AC7000A069884213D1E06960B1E268D5F80002AA
:10AC800020F02000C5F80002E069A0612069E661BB
:10AC9000E06001E0A661E2682046FFF7BFF84FF4EC
:10ACA000A27739462846FEF74AFA68B1394628465F
:10ACB000FEF74AFAA06938B1A661E661D5F83C15FD
:10ACC0002046E268FFF7AAF84FF49076314628460E
:10ACD000FEF735FA60B131462846FEF735FA012015
:10ACE000E860606920B1D5F84C152046FFF78FFE6B
:10ACF0004FF4AC7631462846FEF721FA00280ED0F4
:10AD000031462846FEF720FA6069002807D0D5F8BA
:10AD10004C1504B02046BDE8F041FFF778BEBDE811
:10AD2000FF8100002DE9F05F8346DDE90A4A99467C
:10AD300090460D460846012703E000BFB0FBF8F03F
:10AD40007F1C4045FAD2B94500D94F465FEACA7028
:10AD500012D18CB15FEA8A7002D5B9F1000F01D02F
:10AD6000202607E0302605E031465846641EFCF7F1
:10AD7000E7F90CB1A742F7D35FF00106B9F1010F73
:10AD800002D9A9F1010903E0B5FBF6F0404502D371
:10AD900006FB08F6F2E7DFF83C9000BFB5FBF6F0E3
:10ADA00000FB165519F800105846FCF7C9F9B6FB18
:10ADB000F8F6002EF2D15FEACA7009D0002C07D055
:10ADC000A74205D220215846641EFCF7B9F9F5E7E1
:10ADD000BDE8F09F5CAF02002DE9F8430D46898A7B
:10ADE000384A01EB810102EB810638B12946304631
:10ADF000FEF75AFD4FF40640BDE8F88331897068CC
:10AE0000002400EB81072F48A97DA83848F20D687F
:10AE100007294FD2DFE801F00D2E172504414B0022
:10AE20004460A969016027482749A838FEF736FF22
:10AE300030B10220A875042339462A1D009424E06D
:10AE400048F20960D8E728692A4608B1032000E0E3
:10AE500001209075042305F10C0207F1080100940C
:10AE600013E00120A8750094E88807F10C01830025
:10AE70002A690AE028782A4603280CD00620907513
:10AE8000042305F10802391D00941048FDF748FA23
:10AE9000B0B1444610E00520F1E70621A9750A4942
:10AEA00040680988FEF778FF040005D108E041F604
:10AEB0001D5401E048F20E6429463046FEF7F4FCCA
:10AEC000204699E7EC5E0020245A0020DC5A00203E
:10AED0000338FDD87047000000000000003000403B
:10AEE00000000000000000001C0000001D00000029
:10AEF00000009801020000000000000000000000B7
:10AF00000338FDD87047000000000000003000400A
:10AF1000000000000000000000000050D993020073
:10AF2000459602005D66020001000000000000007E
:10AF30000000000000000000000000000000000011
:10AF40000338FDD870470000D059002001000600EA
:10AF500000000000E4590020DD710200303132337E
:10AF6000343536373839414243444546F459002098
:10AF70000010000004000000010000006E72665F17
:10AF80006673746F726167655F696E6974006E7273
:10AF9000665F6673746F726167655F756E696E690F
:10AFA00074006E72665F6673746F726167655F725C
:10AFB000656164006E72665F6673746F7261676567
:10AFC0005F7772697465006E72665F6673746F7224
:10AFD0006167655F6572617365000000105A00204B
:10AFE0000000FFFFDEC0ADDEFF011EF1DEC0ADDE02
:10AFF000FE011EF119870200178702001187020067
:10B000000338FDD870470000246000207F00000056
:10B01000A46000206E102734585B00200000000060
:10B020002D88020001880200F9870200FFFFFFFF60
:10B03000FFFFFFFFFFFFFFFFFFFFFFFF000000001C
:10B04000000000000000D6010601000014B5020057
:10B050001CB5020000000000000000000010020704
:10B060004CB002005CB002000800000084B0020096
:10B0700094B002000800000094B00200A4B00200E6
:10B08000080000003CB502004CB5020000000000C2
:10B09000000000002CB502003CB5020000000000DA
:10B0A00000000000FCB4020004B5020004B5020078
:10B0B00014B50200000000000000000000000000C5
:10B0C0000000000068590020A4B00200C4B00200D3
:10B0D000080000001CB502002CB5020000000000B2
:10B0E00000000000D4B00200E4B00200080000003C
:10B0F000004040404040404040404141414141408B
:10B10000404040404040404040404040404040403F
:10B1100040050202020202020202020202020202CE
:10B1200002202020202020202020200202020202D3
:10B13000020290909090909010101010101010102B
:10B140001010101010101010101010100202020237
:10B15000020288888888888808080808080808087B
:10B160000808080808080808080808080202020277
:10B1700040000000F1B00200616464725F69735FB7
:10B1800077697468696E5F626F756E647328705F4B
:10B1900066732C20706167655F616464722C20287F
:10B1A0006C656E202A20705F66732D3E705F666C42
:10B1B0006173685F696E666F2D3E65726173655F6E
:10B1C000756E6974292900007761726E696E670077
:10B1D00064656275670000001B5B313B33306D00B6
:10B1E0001B5B306D000000001B5B313B33316D0099
:10B1F0001B5B313B33326D001B5B313B33336D00E6
:10B200001B5B313B33346D001B5B313B33356D00D1
:10B210001B5B313B33366D001B5B313B33376D00BD
:10B22000696E666F000000006572726F7200000048
:10B230006170705F74696D65722E6D5F6273705FAF
:10B240006C6564735F746D72000000006170705F04
:10B2500074696D65722E6D5F6273705F616C65728B
:10B26000745F746D720000006170705F74696D6569
:10B27000722E6D5F6273705F627574746F6E5F744F
:10B280006D7200006E72665F626C655F67617474F8
:10B2900000000000626C655F6E757300636C6F6325
:10B2A0006B000000434C4F434B0000004750494F98
:10B2B00054450000505253005541525400000000C4
:10B2C0005541525445000000545749006170705F69
:10B2D000627574746F6E00006170705F74696D6583
:10B2E000722E6D5F646574656374696F6E5F64650B
:10B2F0006C61795F74696D65725F6964000000005C
:10B300006170705F74696D657200000061746669D8
:10B31000666F2E6D5F7265715F6669666F00000013
:10B320007077725F6D676D7400000000736F7274E8
:10B330006C6973740000000061746669666F2E6D3D
:10B340005F6669666F0000006E72665F6673746F99
:10B35000726167650000000061746669666F2E6D3A
:10B360005F717565756500007274745F6C6F675FFF
:10B370006261636B656E6400756172745F6C6F67A8
:10B380005F6261636B656E640000000062616C6CFB
:10B390006F632E6C6F675F6D656D706F6F6C000013
:10B3A000617070006C6F675F6D656D706F6F6C00C2
:10B3B0006E72665F736468006E72665F7364685F66
:10B3C000626C65006E72665F7364685F736F6300C2
:10B3D0004CB5020068590020580200009864020031
:10B3E000ACB50200C05B0020E82B00007E6A0200C2
:10B3F000F4AF02000000000068B30200585A0020B9
:10B4000020B002000000000078B30200605A002063
:10B4100030B20200000000034CB202000000000342
:10B4200068B202000000000384B2020000000303BF
:10B4300094B20200000000009CB202000000000074
:10B44000A4B2020000000000ACB202000000000044
:10B45000B4B2020000000000B8B202000000000018
:10B46000C0B2020000000000C8B2020000000000EC
:10B47000CCB2020000000000D8B2020000000003BD
:10B4800000B30200000000000CB302000000000343
:10B4900020B30200000000002CB3020000000000F6
:10B4A00038B302000000000348B3020000000303A9
:10B4B00058B30200000000038CB302000000000338
:10B4C000A0B3020000000303B0B3020000000303B6
:10B4D000B8B3020000000303C4B30200000003037A
:10B4E000745A00206C5A0020745A0020645F0020B7
:10B4F000445B0020A4B3020018000000496F020062
:10B5000000000000DD6D0200000000004D6E020032
:10B51000000000004582020000000000899F020038
:10B52000000000007D82020000000000098F020080
:10B53000000000007D90020000000000359E020027
:10B54000000000005D820200000000008102484807
:10B550001510014011022104132C5B0220200A194E
:10B5600038240A21404001189AFF08690C01181478
:10B5700028B20214C8B1021A20081AD0081AE0042E
:10B580001AD8041AE8041AF0041AF80411191C1A3B
:10B5900008041A10041A1804911220BA40084184B1
:0CB5A00090D0039B37742C01CF000000FA
:040000050002620192
:00000001FF
